S0120000426F6F744C6F616465722E7372656327
S113000050F0FF1F31100000A1010000F30D0000AB
S113001000000000000000000000000000000000DC
S1130020000000000000000000000000A310000019
S11300300000000000000000AF1000004D1100009F
S1130040E1100000E9100000F1100000F9100000B8
S11300503911000039110000391100003911000074
S11300600111000009110000111100001911000014
S1130070B50D000021110000291100003911000004
S11300803911000039110000391100003911000044
S11300903911000039110000890C000031110000F1
S11300A03911000039110000391100003911000024
S11300B0391100003911000039110000390600001F
S11300C0F446002804D4494200F013F84042604743
S11300D04042002905D45FD000F00BF84042494269
S11300E06047494200F005F84942604703460B4324
S11300F0E6D40022030A8B420BD203098B4219D2A5
S113010043088B422ED2411A00D201465241104676
S11301107047FF2209023FD012068B4205D3121208
S113012009028B4201D31212090203098B4219D32B
S113013000E0090AC3098B4201D3CB01C01A524122
S113014083098B4201D38B01C01A524143098B426C
S113015001D34B01C01A524103098B4201D30B0155
S1130160C01A5241C3088B4201D3CB00C01A52417A
S113017083088B4201D38B00C01A524143088B423F
S113018001D34B00C01A5241884200D3401A524155
S1130190CFD201461046704708B500F029FE08BDCD
S11301A0FEE70000000000008813000001000000CA
S11301B0910400000000000434000000000001006D
S11301C09304000004000C0814101C1800004001E3
S1130400FFFFFFFFFFFFFFFFFFFFFFFFFEFFFFFFF9
S11304100121C006C00E8140C24801607047F0B59A
S1130420020052B2002A1CD518230F25A34C020047
S113043052B22A40083A92089200060076B2354039
S1130440083DAD08AD006559FF26C7001F40BE40FA
S1130450B5438901C9B2C000034099402943A15062
S113046015E0B74A1823040064B2A408A400145980
S1130470FF25C6001E40B540AC438901C9B2C50082
S11304802B409940214340B2800880001150F0BDB8
S11304907047FEB5AB4800780100C9B2532903D1B7
S11304A00120A9494870C6E0A74C6178012931D1DF
S11304B00100C9B2302902D10120207027E00100D7
S11304C0C9B2372907D00100C9B2382903D00100C5
S11304D0C9B2392902D10020207018E00100C9B244
S11304E0312904D10120A0700220E0700FE0010046
S11304F0C9B2322904D10120A0700320E07006E0C3
S1130500C0B2332803D10120A0700420E070002081
S1130510607090E0A178012908D1C0B200F082F99E
S113052000018A4908600220A07084E0A1780229B1
S113053014D1864D2E68C0B200F074F930182860CA
S113054000200100A170012121719F4908602868E1
S1130550401EE178401A9D4908606CE02179002929
S11305601FD0C0B200F05EF9E378257996490A6895
S1130570C0B2DBB2DB00EDB2AD005B1B98401018DB
S11305800860201D2179491C01702179C9B2E278E3
S11305905200521C91424ED1002101700120A071E1
S11305A049E0A179002946D0C0B200F03BF9A17915
S11305B0874D2A68C0B2874BC9B25918491E0978B9
S11305C0884010182860A61DA079401C3070671D53
S11305D06079401C38706079C0B27C490968490070
S11305E0884214D32968784802680191009260799E
S11305F008380221FFF77AFD009A1018019900F0DB
S11306005BF9002001003970010031702860A07985
S1130610092810DB29686C4807680091607908385C
S11306200221FFF763FD3818009900F045F9012015
S1130630307000202860F7BD10B5674C20680007B3
S11306400AD50321654800F043FAFA200001401E50
S11306500028FCD100F057F82068C0041CD50C21F8
S11306605E4800F035FAFA200001401E0028FCD153
S11306700024200000F04EF800280DD108E02000EE
S1130680C0B28002A0214901401800F05BFA641C4A
S11306902000C0B20B28F2DB10BD00B50021080019
S11306A006E000208A0080584D4A8B00D050491C37
S11306B0FF29F6D94A484B49086000BD1CED00E00B
S11306C038B549480168802212010A430260434D4B
S11306D0464C22000321280000F06BF922000C2173
S11306E0280000F066F9424C00220321200000F0AB
S11306F061FA00220C21200000F05CFA01211F2085
S113070000F0D2F931BD3B480068C1080800C007B9
S1130710C00F704737480068010B0800C007C00FBE
S11307207047000000E100E080B5334800F05EFA55
S11307301620FFF76DFE01211620FFF770FE01BDA4
S113074000E400E007A0064030E8FF1F40E8FF1F78
S113075010B52A48017802220A4302702848017819
S113076001220A43027027480168274A0A400260AE
S11307700168C02212050A4302601B4801688022F6
S113078092000A430260214801688022D2000A4391
S113079002601F4C1F4A0121200000F00AF91E4A82
S11307A00221200000F005F91C4800F0A5FA1C48BD
S11307B0017804220A4302700C20FFF729FE00216D
S11307C00C20FFF72CFE10BD38E8FF1F44E8FF1F84
S11307D03CE8FF1F20E0FF1FA0B0044000B004402D
S11307E00040002008ED00E038800440481100007B
S11307F080F00F40900000F800E0FF1F004006402A
S11308000140064004800440FFFFFFF334800440AD
S113081000900440401100004411000010E0FF1F4C
S113082003A0064000B50100C9B230390A2902D23A
S1130830D030C0B208E00100C9B24139062902D261
S1130840C930C0B200E0FF2000BDE0B500F016F8EA
S11308500028FBD1684600F044F800F08EF9002827
S1130860FBD00199009800F047F907BD2B480021FF
S11308708022120181542A4A8154704700B52748C6
S113088080210901415C264A805C814201D101201A
S113089000E00020C0B200BD00B520482049415C02
S11308A0491CC9B280221201805C814201D101201D
S11308B000E00020C0B200BD38B505000C00FFF711
S11308C0EBFF00280CD11548154941180A78D200CD
S11308D085500A78D200801844600878401C08705B
S11308E031BD70B50600FFF7C9FF002807D000200E
S11308F0040005002000290003C6083E0CE0074858
S11309008021090142181178C900401803C81378DE
S11309105B1C137003C6083E70BD00002CE0FF1F73
S1130920010800000121C006C00E81405848016042
S113093070470121C006C00E8140564801607047CF
S1130940F0B5020052B2002A1CD518230F25524CD0
S1130950020052B22A40083A92089200060076B287
S11309603540083DAD08AD006559FF26C7001F405E
S1130970BE40B5438901C9B2C00003409940294330
S1130980A15015E0454A1823040064B2A408A40049
S11309901459FF25C6001E40B540AC438901C9B2B5
S11309A0C5002B409940214340B28008800011507B
S11309B0F0BD30B50B00DBB2202B68DA5378042B82
S11309C065DA1378082B62DA93780D2B5FDA0B0063
S11309D0DBB29B00C358324C1C400B00DBB29B00C3
S11309E0C4500B00DBB29B00C35814782402E025EA
S11309F0ED0025401D430B00DBB29B00C5500B00EE
S1130A00DBB29B00C3580224A3430C00E4B2A4004D
S1130A1003510B00DBB29B00C3580124A3430C0019
S1130A20E4B2A40003515378022B02D05378032B71
S1130A3009D10B00DBB29B00C35802241C430B00FA
S1130A40DBB29B00C4505378032B09D10B00DBB2FB
S1130A509B00C35801241C430B00DBB29B00C45011
S1130A600B00DBB29B00C3580E4C1C400B00DBB2E6
S1130A709B00C4500B00DBB29B00C3589278120455
S1130A80F024240314401C43C9B28900445030BDEF
S1130A9000E100E080E200E01CED00E000E400E0A2
S1130AA0FFF8FFFFFFFFF0FF10B504000800C0B21D
S1130AB010280CDAC9B2200040B2FFF741FF200031
S1130AC040B2FFF736FF200040B2FFF72BFF10BD06
S1130AD000B50A00D2B2202A0CDA0122A023C3589E
S1130AE0CB401340002B05D0A023C3588A401A439F
S1130AF0A021425000BD000030B5234A8218102ABC
S1130B001FD38022214B1C781442FAD030241C704D
S1130B1006241F4D2C700400240C1E4D2C70040A56
S1130B201D4D2C701D4C2070080E1D4C20700800AB
S1130B30000C1C4C2070080A1B4C20701B480170D0
S1130B401A7030BD10B510494118194A914213D397
S1130B5080210E4A13780B42FAD0302313700923F4
S1130B600B4C237003001B0C0A4C2370030A0A4C21
S1130B7023700A4B1870117010BD04480078C0B27D
S1130B80C009C0B27047000000FCFFFF0000024033
S1130B900700024006000240050002400400024033
S1130BA00B0002400A000240090002400800024013
S1130BB0FF03000000B50B00DBB2202B15DA130095
S1130BC0DBB2022B11DA1300DBB2012B05D142692F
S1130BD001238B401343436107E0D2B2002A04D1BE
S1130BE0426901238B409A43426100BD70B5040001
S1130BF0002039480168802212040A430260022559
S1130C00ED4336480168294001606178002904D128
S1130C10016801229143016003E0016801220A4353
S1130C20026000F0EBF866682D480068FA2189003C
S1130C30FFF75FFA2B490968090C4907490F491C5A
S1130C40C9B2FFF756FA4643761E274821780901B0
S1130C504650217A01290DD12178090141182278C1
S1130C60120180188068022202438A60E0681F49EA
S1130C70086008E0217809014118227812018018DF
S1130C80806805408D6070BD10B501241848006867
S1130C902040002806D00020144909688847002015
S1130CA000F00DF8134800680440002C06D0012021
S1130CB00E4909688847012000F001F810BD0A496F
S1130CC00200D2B212018A18D26801231343C0B2BF
S1130CD000010818C36070473C8004400070034062
S1130CE028E0FF1F448004400071034048E8FF1FD0
S1130CF00C7103401C710340F0B535490A78037840
S1130D001B011024234013430B700A78FD23134066
S1130D100B700A78FE2313400B704278022A02D02B
S1130D204278032A03D10A78022313430B704278D2
S1130D30032A03D10A78012313430B702021254A87
S1130D401378847864010C401C4314701F23E0243E
S1130D50214D2E782640C7787F1E1F4037432F70C1
S1130D6015782C4014701D4C2578002525701578B5
S1130D704668360A33402B43137022784368134382
S1130D802370174A1378047AE4011C43437A857A62
S1130D901D436B01194021431170C168114A116050
S1130DA0C078001F042804D20F48017802220A43A5
S1130DB00270F0BD80B50D480178890603D501782D
S1130DC0DF220A40027007480068804701BD000026
S1130DD002A0064000A006400AA0064001A006406A
S1130DE003A006404CE8FF1F0BA0064004A00640E9
S1130DF07047FEE7002053490860704730B5C020B3
S1130E00514A1178030019427CD1504C2078400695
S1130E1068D41078400726D44D484E4909783023C9
S1130E200B40002B14D0117838230B40302B04D006
S1130E30382B05D1C021C90011E0A021C9000EE062
S1130E4020211278D2B2D2085207520F914006E004
S1130E5001211278D2B2D2085207520F914089B2BE
S1130E60FFF747F901E0802000023B490978C9B245
S1130E70E0220A40002A0ED0202A18D0402A1AD094
S1130E80602A1CD0802A1ED0A02A20D0C02A22D0BA
S1130E90E02A23D025E0A021890048432F4909688E
S1130EA0090F491CFFF725F92D49086030BDA02121
S1130EB0C9004843F2E7F021C9004843EEE7A02106
S1130EC009014843EAE7B72189004843E6E7B72127
S1130ED0C9004843E2E723494843DFE7224948433E
S1130EE0DCE7DBE71F2521480178C9B22940491C0A
S1130EF0174889B2FFF7FDF821780D401835ADB2D7
S1130F006843CBE711780140402913D11148007898
S1130F10C00702D480200002C0E7012114480078F1
S1130F20C0B240084007400F8140124889B2FFF721
S1130F30E0F8B3E711780840802801D10448ADE710
S1130F40B4E700000081044000400640054006402C
S1130F5000127A00014006400340064044800440E9
S1130F6028E0FF1F95080000710B000004400640B4
S1130F700840064000093D0070B40123002413E03A
S1130F800168001D194202D04D466918491E0C60C3
S1130F90091D121F042AFAD20D00960701D50C80F0
S1130FA0AD1C1A4000D02C700268001D002AE7D145
S1130FB070BC704730B401220EE00368C318446863
S1130FC00830144202D04D462C19641E1D68256059
S1130FD01B1D241D091FF9D10168001D0029ECD136
S1130FE030BC704710B5074979441831064C7C442D
S1130FF0163404E0081D0A68891888470100A142D4
S1131000F8D110BD500000007000000080B5FFF75B
S113101057FBFFF789FBFFF79BFBFFF727FCFFF765
S11310203CFBFFF72BFC0028FBD1FFF70EFCF8E795
S113103072B60448044901600448804762B6044813
S11310400047000008ED00E000000000F50D00007E
S1131050C510000025FFFFFF240800002CE0FF1F3F
S11310600000000051FFFFFF2C00000038F1FFFFDB
S113107000E0FF1F0000000000F00DF8002801D080
S1131080FFF7B0FF00BF00BF002000BF00BFFFF7A5
S1131090BDFF00F002F80120704780B500F002F8AF
S11310A001BDFEE70746384600F002F8FBE7FEE71D
S11310B080B500BF00BF024A11001820ABBEFBE799
S11310C0260002000548014603B4684680F30988F7
S11310D000BF00BF00BF00BFFFF7CEFFA5EDF5FEC8
S11310E0004800473911000000480047391100004A
S11310F0004800473911000000480047391100003A
S11311000048004739110000004800473911000029
S11311100048004739110000004800473911000019
S11311200048004739110000004800473911000009
S113113000480047391100000048004739110000F9
S1111140020300000203000001030A00FEE7A0
S90310C527
