S0120000426F6F744C6F616465722E7372656327
S113000020E8FF1FCD06000037070000430700006B
S113001000000000000000000000000000000000DC
S1130020000000000000000000000000F9070000CC
S11300300000000000000000FB070000FD070000B6
S11300409107000099070000A1070000A90700001C
S1130050E9070000E9070000E9070000E9070000DC
S1130060B1070000B9070000C1070000C90700007C
S11300707D010000D1070000D907000075070000CA
S1130080E9070000E9070000E9070000E9070000AC
S1130090E9070000E907000045060000E107000049
S11300A0E9070000E9070000E9070000E90700008C
S11300B0E9070000E9070000E9070000E90700007C
S11300C0F0B53F490A7803781B01102423401343F9
S11300D00B700A78FD2313400B700A78FE2313403B
S11300E00B704278022A02D04278032A03D10A789C
S11300F0022313430B704278032A03D10A780123A5
S113010013430B7020212F4A1378847864010C4028
S11301101C4314701F23E0242B4D2E782640C778EF
S11301207F1E1F4037432F7015782C401470274CC6
S113013025780025257015784668360A33402B4308
S113014013702278436813432370214A1378047A86
S1130150E4011C43437A857A1D436B011940214312
S11301601170C1681B4A1160C078001F042804D2B2
S11301701948017802220A430270F0BD80B517487D
S11301800178890603D50178DF220A4002701148FC
S11301900068804701BD00B50D490A780823134360
S11301A00B700E4A13781B06FBD50D4B1870107894
S11301B04006FCD50878F72202400A7000BD000012
S11301C002A0064000A006400AA0064001A0064086
S11301D003A0064018E0FF1F0BA0064004A0064041
S11301E007A0064030B401220EE00368C318446837
S11301F00830144202D04D462C19641E1D68256037
S11302001B1D241D091FF9D10168001D0029ECD113
S113021030BC7047000000043400000000000100FE
S11302209104000000000000000000000000000035
S107023000000000C6
S1130400FFFFFFFFFFFFFFFFFFFFFFFFFEFFFFFFF9
S11304100121C006C00E81404C4801607047F0B510
S1130420020052B2002A1CD518230F253B4C0200AF
S113043052B22A40083A92089200060076B2354039
S1130440083DAD08AD006559FF26C7001F40BE40FA
S1130450B5438901C9B2C000034099402943A15062
S113046015E03B4A1823040064B2A408A4001459FC
S1130470FF25C6001E40B540AC438901C9B2C50082
S11304802B409940214340B2800880001150F0BDB8
S113049080B523482F49097801700078FFF77BFE67
S11304A001BD10B52048017802220A4302701F489A
S11304B0017801220A4302701D4801681D4A0A405E
S11304C002600168C02212050A43026015480168EF
S11304D0802292000A430260174801688022D200F9
S11304E00A430260154C164A0121200000F036F838
S11304F0144A0221200000F031F81348FFF7E0FD10
S11305001548017804220A4302700C20FFF780FF8B
S113051001210C20FFF783FF10BD00001CED00E05B
S11305201CE0FF1F388004400040064001400640A4
S113053004800440FFFFFFF3348004400090044033
S1130540F0070000F407000000E0FF1F00E100E0F6
S113055000E400E007A0064003A0064030B50B000D
S1130560DBB2202B68DA5378042B65DA1378082B76
S113057062DA93780D2B5FDA0B00DBB29B00C35871
S11305802E4C1C400B00DBB29B00C4500B00DBB2B2
S11305909B00C35814782402E025ED0025401D4338
S11305A00B00DBB29B00C5500B00DBB29B00C358B1
S11305B00224A3430C00E4B2A40003510B00DBB2F9
S11305C09B00C3580124A3430C00E4B2A4000351CC
S11305D05378022B02D05378032B09D10B00DBB2E2
S11305E09B00C35802241C430B00DBB29B00C45085
S11305F05378032B09D10B00DBB29B00C3580124B1
S11306001C430B00DBB29B00C4500B00DBB29B000D
S1130610C3580B4C1C400B00DBB29B00C4500B00B6
S1130620DBB29B00C35892781204F02424031440D4
S11306301C43C9B28900445030BD0000FFF8FFFFDD
S1130640FFFFF0FF10B50124144800682040002883
S113065006D00020104909688847002000F00DF8F2
S11306600F4800680440002C06D001200A4909689C
S11306708847012000F001F810BD06490200D2B2FB
S113068012018A18D26801231343C0B2000108186A
S1130690C36070470071034014E0FF1F0C710340F6
S11306A01C71034010B5074979441831064C7C4449
S11306B0163404E0081D0A68891888470100A1421D
S11306C0F8D110BD2C0000003C00000072B60448B4
S11306D0044901600448804762B6044800470000AA
S11306E008ED00E000000000850700005907000045
S11306F0F5FAFFFF200000001CFBFFFF00E0FF1FD6
S11307000000000000F00DF8002801D0FFF7CAFF38
S113071000BF00BF002000BF00BF00F004F800F0DD
S113072006F80120704780B5FFF7BBFEFEE780B5F1
S113073000F002F801BDFEE70746384600F002F873
S1130740FBE7FEE780B500BF00BF024A1100182096
S1130750ABBEFBE7260002000548014603B4684629
S113076080F3098800BF00BF00BF00BFFFF7CAFFC6
S1130770A5EDF5FE80B502480068804701BD000084
S113078010E0FF1F00200149086070470081044009
S113079000480047E907000000480047E907000057
S11307A000480047E907000000480047E907000047
S11307B000480047E907000000480047E907000037
S11307C000480047E907000000480047E907000027
S11307D000480047E907000000480047E907000017
S11307E000480047E907000000480047E907000007
S11107F00203000002030000FEE7FEE7FEE73E
S90307599C
