S0120000426F6F744C6F616465722E7372656327
S113000050F0FF1F1D100000A10100003F0F000071
S113001000000000000000000000000000000000DC
S1130020000000000000000000000000F30F0000CA
S113003000000000000000008F1000009B10000072
S1130040CD100000D5100000DD100000E510000008
S113005025110000251100002511000025110000C4
S1130060ED100000F5100000FD1000000511000067
S1130070010F00000D1100001511000025110000F2
S11300802511000025110000251100002511000094
S11300902511000025110000251100001D1100008C
S11300A02511000025110000251100002511000074
S11300B0251100002511000025110000370600005D
S11300C0F446002804D4494200F013F84042604743
S11300D04042002905D45FD000F00BF84042494269
S11300E06047494200F005F84942604703460B4324
S11300F0E6D40022030A8B420BD203098B4219D2A5
S113010043088B422ED2411A00D201465241104676
S11301107047FF2209023FD012068B4205D3121208
S113012009028B4201D31212090203098B4219D32B
S113013000E0090AC3098B4201D3CB01C01A524122
S113014083098B4201D38B01C01A524143098B426C
S113015001D34B01C01A524103098B4201D30B0155
S1130160C01A5241C3088B4201D3CB00C01A52417A
S113017083088B4201D38B00C01A524143088B423F
S113018001D34B00C01A5241884200D3401A524155
S1130190CFD201461046704708B500F0CFFE08BD27
S11301A0FEE700000000000434000000000001002D
S11301B09104000004000C0814101C180014000022
S10F01C0002800000000400101000000C5
S1130400FFFFFFFFFFFFFFFFFFFFFFFFFEFFFFFFF9
S11304100121C006C00E8140C64801607047F0B596
S1130420020052B2002A1CD518230F25A74C020043
S113043052B22A40083A92089200060076B2354039
S1130440083DAD08AD006559FF26C7001F40BE40FA
S1130450B5438901C9B2C000034099402943A15062
S113046015E0B84A1823040064B2A408A40014597F
S1130470FF25C6001E40B540AC438901C9B2C50082
S11304802B409940214340B2800880001150F0BDB8
S1130490FEB5AD4800780100C9B2532903D101204B
S11304A0AA494870C6E0A94C6178012931D10100FC
S11304B0C9B2302902D10120207027E00100C9B25D
S11304C0372907D00100C9B2382903D00100C9B2C5
S11304D0392902D10020207018E00100C9B2312965
S11304E004D10120A0700220E0700FE00100C9B225
S11304F0322904D10120A0700320E07006E0C0B2CC
S1130500332803D10120A0700420E0700020607023
S113051090E0A178012908D1C0B200F089F9000166
S11305209A4908600220A07084E0A178022914D1BD
S1130530964D2E68C0B200F07BF930182860002078
S11305400100A17001212171CB4908602868401E77
S1130550E178401A8E4908606CE0217900291FD0A7
S1130560C0B200F065F9E3782579C3490A68C0B2DE
S1130570DBB2DB00EDB2AD005B1B984010180860E5
S1130580201D2179491C01702179C9B2E2785200F9
S1130590521C91424ED1002101700120A07149E00A
S11305A0A179002946D0C0B200F042F9A1799E4D4C
S11305B02A68C0B29D4BC9B25918491E09788840AF
S11305C010182860A61DA079401C3070671D607942
S11305D0401C38706079C0B26D490968490088428E
S11305E014D32968A44802680191009260790838FC
S11305F00221FFF77BFD009A1018019900F0CCF955
S1130600002001003970010031702860A0790928A8
S113061010DB29689848076800916079083802213E
S1130620FFF764FD3818009900F0B6F90120307026
S113063000202860F7BD10B59F4C206800070FD537
S113064003219E4800F0B4FAFA200001401E00285D
S1130650FCD100F060F8002802D10220A249087001
S11306602068C0041FD50C21944800F0A1FAFA2098
S11306700001401E0028FCD10024200000F052F8A4
S1130680002810D103209849087008E02000C0B267
S11306908002A0214901401800F0C4FA641C200023
S11306A0C0B20B28F2DB10BD00B50021080006E043
S11306B000208A0080588D4A8B00D050491CFF29A5
S11306C0F6D98A488A49086000BD00001CED00E0A4
S11306D038B588480168802212010A430260774DC8
S11306E0854C22000321280000F0D3F922000C21BC
S11306F0280000F0CEF9814C00220321200000F0F4
S1130700C3FA00220C21200000F0BEFA01211F20B0
S113071000F03AFA31BD7A480068C1080800C00701
S1130720C00F704776480068010B0800C007C00F6F
S11307307047000000E100E07248016804220A43A7
S11307400260704700E400E007A006402CE8FF1FA9
S113075010B5040000206C49086000F0B5FA6B483D
S11307600068FA218900FFF7C4FC44436848046028
S11307706448016801220A4302600168C903FCD588
S1130780016801229143016010BD000040E8FF1F91
S113079044E8FF1F10B50024200004E0FA204000C4
S11307A0FFF7D6FF641C2000C0B20A28F6DB10BD98
S11307B010B55848017802220A430270564801785D
S11307C001220A43027055480168554A0A400260F2
S11307D00168C02212050A4302604648016880226B
S11307E092000A4302604F4801688022D2000A4303
S11307F002604D4C4D4A0121200000F04AF94C4A58
S11308000221200000F045F94A4800F01BFB4A4849
S1130810017804220A4302700C20FFF7F9FD00213D
S11308200C20FFF7FCFD10BD3CE8FF1F10E0FF1F8C
S113083000B50100C9B230390A2902D2D030C0B2A1
S113084008E00100C9B24139062902D2C930C0B258
S113085000E0FF2000BDE0B5684600F0B2F8019961
S1130860009800F0B9F907BD72B670470020254919
S1130870086027490860704738E8FF1F0020C0431C
S11308802E490860704710B50400FFF7EDFFFFF72D
S1130890EDFFFFF7F3FFBFF35F8F206880F3088855
S11308A0BFF34F8F12480460241D20682449086058
S11308B00868804710BD0000A0B0044000B00440A8
S11308C080B509480178012904D11E480068FFF762
S11308D0DAFF01BD0078022804D11B480068FFF745
S11308E0D2FFF6E7F5E7000024E0FF1F00400020F8
S11308F008ED00E0388004403411000080F00F401F
S1130900900000F810E000E018E000E020E0FF1F95
S113091014E000E00040064001400640048004402A
S1130920FFFFFFF334800440009004402C110000CA
S11309303011000000E0FF1F03A0064080E200E049
S113094034E8FF1F18E0FF1F1CE0FF1F2B480021A5
S11309508022120181542A4A8154704700B52748E5
S113096080210901415C264A805C814201D1012039
S113097000E00020C0B200BD00B520482049415C21
S1130980491CC9B280221201805C814201D101203C
S113099000E00020C0B200BD38B505000C00FFF730
S11309A0EBFF00280CD11548154941180A78D200EC
S11309B085500A78D200801844600878401C08707A
S11309C031BD70B50600FFF7C9FF002807D000202D
S11309D0040005002000290003C6083E0CE0074877
S11309E08021090142181178C900401803C81378FE
S11309F05B1C137003C6083E70BD000028E0FF1F97
S1130A00010800000121C006C00E81405848016061
S1130A1070470121C006C00E8140564801607047EE
S1130A20F0B5020052B2002A1CD518230F25524CEF
S1130A30020052B22A40083A92089200060076B2A6
S1130A403540083DAD08AD006559FF26C7001F407D
S1130A50BE40B5438901C9B2C0000340994029434F
S1130A60A15015E0454A1823040064B2A408A40068
S1130A701459FF25C6001E40B540AC438901C9B2D4
S1130A80C5002B409940214340B28008800011509A
S1130A90F0BD30B50B00DBB2202B68DA5378042BA1
S1130AA065DA1378082B62DA93780D2B5FDA0B0082
S1130AB0DBB29B00C358324C1C400B00DBB29B00E2
S1130AC0C4500B00DBB29B00C35814782402E02509
S1130AD0ED0025401D430B00DBB29B00C5500B000D
S1130AE0DBB29B00C3580224A3430C00E4B2A4006D
S1130AF003510B00DBB29B00C3580124A3430C0039
S1130B00E4B2A40003515378022B02D05378032B90
S1130B1009D10B00DBB29B00C35802241C430B0019
S1130B20DBB29B00C4505378032B09D10B00DBB21A
S1130B309B00C35801241C430B00DBB29B00C45030
S1130B400B00DBB29B00C3580E4C1C400B00DBB205
S1130B509B00C4500B00DBB29B00C3589278120474
S1130B60F024240314401C43C9B28900445030BD0E
S1130B7000E100E080E200E01CED00E000E400E0C1
S1130B80FFF8FFFFFFFFF0FF10B504000800C0B23C
S1130B9010280CDAC9B2200040B2FFF741FF200050
S1130BA040B2FFF736FF200040B2FFF72BFF10BD25
S1130BB000B50A00D2B2202A0CDA0122A023C358BD
S1130BC0CB401340002B05D0A023C3588A401A43BE
S1130BD0A021425000BD000030B5204A8218102ADE
S1130BE01FD380221E4B1C781442FAD030241C7070
S1130BF006241C4D2C700400240C1B4D2C70040A7C
S1130C001A4D2C701A4C2070080E1A4C20700800D3
S1130C10000C194C2070080A184C207018480170F8
S1130C201A7030BD10B50D494118164A914213D3BC
S1130C3080210B4A13780B42FAD030231370092316
S1130C40084C237003001B0C074C2370030A074C49
S1130C502370074B1870117010BD000000FCFFFFDB
S1130C600000024007000240060002400500024066
S1130C70040002400B0002400A0002400900024046
S1130C8008000240FF03000000B50B00DBB2202B7C
S1130C9015DA1300DBB2022B11DA1300DBB2012BDD
S1130CA005D1426901238B401343436107E0D2B26B
S1130CB0002A04D1426901238B409A43426100BD5A
S1130CC0002053490860704730B5C020514A11785C
S1130CD0030019427CD1504C2078400668D4107827
S1130CE0400726D44D484E49097830230B40002B49
S1130CF014D0117838230B40302B04D0382B05D175
S1130D00C021C90011E0A021C9000EE02021127801
S1130D10D2B2D2085207520F914006E00121127854
S1130D20D2B2D2085207520F914089B2FFF7E1F9CB
S1130D3001E0802000023B490978C9B2E0220A4060
S1130D40002A0ED0202A18D0402A1AD0602A1CD09B
S1130D50802A1ED0A02A20D0C02A22D0E02A23D064
S1130D6025E0A021890048432F490968090F491C3F
S1130D70FFF7BFF92D49086030BDA021C9004843E1
S1130D80F2E7F021C9004843EEE7A02109014843F6
S1130D90EAE7B72189004843E6E7B721C900484399
S1130DA0E2E723494843DFE722494843DCE7DBE73E
S1130DB01F2521480178C9B22940491C174889B226
S1130DC0FFF797F921780D401835ADB26843CBE7AA
S1130DD011780140402913D111480078C00702D48A
S1130DE080200002C0E7012114480078C0B2400806
S1130DF04007400F8140124889B2FFF77AF9B3E700
S1130E0011780840802801D10448ADE7B4E7000018
S1130E1000810440004006400540064000127A006C
S1130E2001400640034006404480044020E0FF1F88
S1130E3095080000710B000004400640084006407D
S1130E4000093D00F0B535490A7803781B011024E8
S1130E50234013430B700A78FD2313400B700A7868
S1130E60FE2313400B704278022A02D04278032AF0
S1130E7003D10A78022313430B704278032A03D167
S1130E800A78012313430B702021254A13788478B0
S1130E9064010C401C4314701F23E024214D2E7860
S1130EA02640C7787F1E1F4037432F7015782C408B
S1130EB014701D4C25780025257015784668360A6F
S1130EC033402B4313702278436813432370174A2B
S1130ED01378047AE4011C43437A857A1D436B0139
S1130EE0194021431170C168114A1160C078001F74
S1130EF0042804D20F48017802220A430270F0BD8C
S1130F0080B50D480178890603D50178DF220A40AF
S1130F10027007480068804701BD000002A0064037
S1130F2000A006400AA0064001A0064003A0064017
S1130F3048E8FF1F0BA0064004A006407047FEE7E8
S1130F400121C006C00E81400148016070470000C5
S1130F5080E100E080B5FFF7BBFBFFF7EDFBFFF797
S1130F6019FC1F20FFF7ECFFFFF7AAFCFFF720FC9A
S1130F70FFF7ECFCFFF798FBFFF7F0FC0028FBD130
S1130F80FFF769FCF8E770B40123002413E001685B
S1130F90001D194202D04D466918491E0C60091DF6
S1130FA0121F042AFAD20D00960701D50C80AD1C3D
S1130FB01A4000D02C700268001D002AE7D170BCD2
S1130FC0704730B401220EE00368C3184468083047
S1130FD0144202D04D462C19641E1D6825601B1D49
S1130FE0241D091FF9D10168001D0029ECD130BC72
S1130FF07047FEE710B5074979441831064C7C4424
S1131000163404E0081D0A68891888470100A142C3
S1131010F8D110BD2C0000004C00000072B604484A
S1131020044901600448804762B604480047000050
S113103008ED00E000000000C10C0000B110000049
S113104047FFFFFF2408000028E0FF1F0000000006
S113105073FFFFFF280000004CF1FFFF00E0FF1FBB
S11310600000000000F00DF8002801D0FFF7C2FFD7
S113107000BF00BF002000BF00BFFFF76BFF00F000
S113108002F80120704780B500F002F801BDFEE7C8
S11310900746384600F002F8FBE7FEE780B500BFDC
S11310A000BF024A11001820ABBEFBE72600020075
S11310B00548014603B4684680F3098800BF00BFB1
S11310C000BF00BFFFF7CEFFA5EDF5FE00480047C7
S11310D02511000000480047251100000048004782
S11310E02511000000480047251100000048004772
S11310F02511000000480047251100000048004762
S11311002511000000480047251100000048004751
S11311102511000000480047251100000048004741
S113112025110000004800472511000002030000BB
S10B11300203000001030A00A0
S90310B13B
