S0120000426F6F744C6F616465722E7372656327
S113000090E8FF1F3D100000A10100005F0F0000F9
S113001000000000000000000000000000000000DC
S113002000000000000000000000000013100000A9
S11300300000000000000000AF100000BB10000032
S1130040ED100000F5100000FD1000000511000087
S11300504511000045110000451100004511000044
S11300600D110000151100001D11000025110000E4
S1130070210F00002D110000351100004511000072
S11300804511000045110000451100004511000014
S11300904511000045110000451100003D1100000C
S11300A045110000451100004511000045110000F4
S11300B045110000451100004511000037060000FD
S11300C0F446002804D4494200F013F84042604743
S11300D04042002905D45FD000F00BF84042494269
S11300E06047494200F005F84942604703460B4324
S11300F0E6D40022030A8B420BD203098B4219D2A5
S113010043088B422ED2411A00D201465241104676
S11301107047FF2209023FD012068B4205D3121208
S113012009028B4201D31212090203098B4219D32B
S113013000E0090AC3098B4201D3CB01C01A524122
S113014083098B4201D38B01C01A524143098B426C
S113015001D34B01C01A524103098B4201D30B0155
S1130160C01A5241C3088B4201D3CB00C01A52417A
S113017083088B4201D38B00C01A524143088B423F
S113018001D34B00C01A5241884200D3401A524155
S1130190CFD201461046704708B500F0DFFE08BD17
S11301A0FEE700000000000434000000000001002D
S11301B09104000004000C0814101C180014000022
S10F01C0002800000000400101000000C5
S1130400FFFFFFFFFFFFFFFFFFFFFFFFFEFFFFFFF9
S11304100121C006C00E8140C54801607047F0B597
S1130420020052B2002A1CD518230F25AA4C020040
S113043052B22A40083A92089200060076B2354039
S1130440083DAD08AD006559FF26C7001F40BE40FA
S1130450B5438901C9B2C000034099402943A15062
S113046015E0BC4A1823040064B2A408A40014597B
S1130470FF25C6001E40B540AC438901C9B2C50082
S11304802B409940214340B2800880001150F0BDB8
S1130490FEB5AC4800780100C9B2532903D101204C
S11304A0AD494870C6E0AC4C6178012931D10100F6
S11304B0C9B2302902D10120207027E00100C9B25D
S11304C0372907D00100C9B2382903D00100C9B2C5
S11304D0392902D10020207018E00100C9B2312965
S11304E004D10120A0700220E0700FE00100C9B225
S11304F0322904D10120A0700320E07006E0C0B2CC
S1130500332803D10120A0700420E0700020607023
S113051090E0A178012908D1C0B200F095F900015A
S11305209F4908600220A07084E0A178022914D1B8
S11305309B4D2E68C0B200F087F930182860002067
S11305400100A17001212171BE4908602868401E84
S1130550E178401A934908606CE0217900291FD0A2
S1130560C0B200F071F9E3782579B6490A68C0B2DF
S1130570DBB2DB00EDB2AD005B1B984010180860E5
S1130580201D2179491C01702179C9B2E2785200F9
S1130590521C91424ED1002101700120A07149E00A
S11305A0A179002946D0C0B200F04EF9A1797E4D60
S11305B02A68C0B27D4BC9B25918491E09788840CF
S11305C010182860A61DA079401C3070671D607942
S11305D0401C38706079C0B2724909684900884289
S11305E014D3296897480268019100926079083809
S11305F00221FFF77BFD009A1018019900F0D8F949
S1130600002001003970010031702860A0790928A8
S113061010DB29688B48076800916079083802214B
S1130620FFF764FD3818009900F0C2F9012030701A
S113063000202860F7BD10B5984C2068000712D53B
S11306400321974800F0C4FAFA200001401E002854
S1130650FCD100F066F8002805D102209D490870FD
S11306600120A74908702068C00422D50C218C48B9
S113067000F0AEFAFA200001401E0028FCD100244C
S1130680200000F057F8002813D103209149087086
S113069001209B49087008E02000C0B28002A0211C
S11306A04901401800F0CEFA641C2000C0B20B28A7
S11306B0F2DB10BD00B50021080006E000208A002E
S11306C08058904A8B00D050491CFF29F6D98D4898
S11306D08D49086000BD00001CED00E038B58B4872
S11306E00168802212010A4302606D4D884C220089
S11306F00321280000F0DDF922000C21280000F07D
S1130700D8F9844C00220321200000F0CDFA002205
S11307100C21200000F0C8FA01211F2000F044FA47
S113072031BD7D480068C1080800C007C00F70478C
S113073000E100E078480068010B0800C007C00F22
S11307407047000007A006407448016804220A4369
S11307500260704700E400E06CE0FF1F10B5040085
S113076000206F49086000F0BFFA6E480068FA2163
S11307708900FFF7BEFC44436B4804606748016886
S113078001220A4302600168C90303D45C49097861
S11307900129F8D1016801229143016010BD0000D4
S11307A080E0FF1F84E0FF1F7CE0FF1F10E0FF1FBD
S11307B010B50024200004E0FA204000FFF7CEFF2B
S11307C0641C2000C0B20A28F6DB10BD10B55748DF
S11307D0017802220A4302705548017801220A4333
S11307E0027054480168544A0A4002600168C022F9
S11307F012050A43026045480168802292000A43B8
S113080002604E4801688022D2000A4302604C4CC8
S11308104C4A0121200000F04CF94B4A02212000EF
S113082000F047F9494800F01DFB494801780422CB
S11308300A4302700C20FFF7EBFD00210C20FFF7A8
S1130840EEFD10BD78E0FF1F00B50100C9B23039DC
S11308500A2902D2D030C0B208E00100C9B241393D
S1130860062902D2C930C0B200E0FF2000BDE0B5C5
S1130870684600F0B6F80199009800F0BDF907BD8C
S113088072B6704700202549086027490860704700
S11308900020C0432F49086070470000A0B0044006
S11308A000B0044010B50400FFF7EAFFFFF7EAFFC9
S11308B0FFF7EEFFBFF35F8F206880F30888BFF374
S11308C04F8F11480460241D20682349086008687C
S11308D0804710BD24E0FF1F80B52048017801291E
S11308E004D11F480068FFF7DDFF01BD007802282E
S11308F004D11C480068FFF7D5FFF6E7F5E70000D0
S11309008CE0FF1F0040002008ED00E03880044028
S11309105411000080F00F40900000F810E000E057
S113092018E000E020E0FF1F14E000E00040064073
S11309300140064004800440FFFFFFF3348004407C
S1130940009004404C1100005011000000E0FF1F13
S113095003A0064080E200E074E0FF1F24E0FF1FD4
S113096018E0FF1F1CE0FF1F2D4800214022815486
S113097041228154704700B529484021415C4122FD
S1130980805C814201D1012000E00020C0B200BDA2
S113099000B523484121415C491C4907490F4022C5
S11309A0805C814201D1012000E00020C0B200BD82
S11309B038B505000C00FFF7EBFF002810D11848EC
S11309C04121415CC90045504121415CC9004118A5
S11309D04C604121415C491C4907490F4122815423
S11309E031BD70B50600FFF7C6FF002807D0002010
S11309F0040005002000290003C6083E0EE0084A52
S1130A004020105CC000101803C84023D35C5B1C5A
S1130A105B075B0F4024135503C6083E70BD0000FE
S1130A2028E0FF1F0121C006C00E81405848016024
S1130A3070470121C006C00E8140564801607047CE
S1130A40F0B5020052B2002A1CD518230F25524CCF
S1130A50020052B22A40083A92089200060076B286
S1130A603540083DAD08AD006559FF26C7001F405D
S1130A70BE40B5438901C9B2C0000340994029432F
S1130A80A15015E0454A1823040064B2A408A40048
S1130A901459FF25C6001E40B540AC438901C9B2B4
S1130AA0C5002B409940214340B28008800011507A
S1130AB0F0BD30B50B00DBB2202B68DA5378042B81
S1130AC065DA1378082B62DA93780D2B5FDA0B0062
S1130AD0DBB29B00C358324C1C400B00DBB29B00C2
S1130AE0C4500B00DBB29B00C35814782402E025E9
S1130AF0ED0025401D430B00DBB29B00C5500B00ED
S1130B00DBB29B00C3580224A3430C00E4B2A4004C
S1130B1003510B00DBB29B00C3580124A3430C0018
S1130B20E4B2A40003515378022B02D05378032B70
S1130B3009D10B00DBB29B00C35802241C430B00F9
S1130B40DBB29B00C4505378032B09D10B00DBB2FA
S1130B509B00C35801241C430B00DBB29B00C45010
S1130B600B00DBB29B00C3580E4C1C400B00DBB2E5
S1130B709B00C4500B00DBB29B00C3589278120454
S1130B80F024240314401C43C9B28900445030BDEE
S1130B9000E100E080E200E01CED00E000E400E0A1
S1130BA0FFF8FFFFFFFFF0FF10B504000800C0B21C
S1130BB010280CDAC9B2200040B2FFF741FF200030
S1130BC040B2FFF736FF200040B2FFF72BFF10BD05
S1130BD000B50A00D2B2202A0CDA0122A023C3589D
S1130BE0CB401340002B05D0A023C3588A401A439E
S1130BF0A021425000BD000030B5204A8218102ABE
S1130C001FD380221E4B1C781442FAD030241C704F
S1130C1006241C4D2C700400240C1B4D2C70040A5B
S1130C201A4D2C701A4C2070080E1A4C20700800B3
S1130C30000C194C2070080A184C207018480170D8
S1130C401A7030BD10B50D494118164A914213D39C
S1130C5080210B4A13780B42FAD0302313700923F6
S1130C60084C237003001B0C074C2370030A074C29
S1130C702370074B1870117010BD000000FCFFFFBB
S1130C800000024007000240060002400500024046
S1130C90040002400B0002400A0002400900024026
S1130CA008000240FF03000000B50B00DBB2202B5C
S1130CB015DA1300DBB2022B11DA1300DBB2012BBD
S1130CC005D1426901238B401343436107E0D2B24B
S1130CD0002A04D1426901238B409A43426100BD3A
S1130CE0002053490860704730B5C020514A11783C
S1130CF0030019427CD1504C2078400668D4107807
S1130D00400726D44D484E49097830230B40002B28
S1130D1014D0117838230B40302B04D0382B05D154
S1130D20C021C90011E0A021C9000EE020211278E1
S1130D30D2B2D2085207520F914006E00121127834
S1130D40D2B2D2085207520F914089B2FFF7D1F9BB
S1130D5001E0802000023B490978C9B2E0220A4040
S1130D60002A0ED0202A18D0402A1AD0602A1CD07B
S1130D70802A1ED0A02A20D0C02A22D0E02A23D044
S1130D8025E0A021890048432F490968090F491C1F
S1130D90FFF7AFF92D49086030BDA021C9004843D1
S1130DA0F2E7F021C9004843EEE7A02109014843D6
S1130DB0EAE7B72189004843E6E7B721C900484379
S1130DC0E2E723494843DFE722494843DCE7DBE71E
S1130DD01F2521480178C9B22940491C174889B206
S1130DE0FFF787F921780D401835ADB26843CBE79A
S1130DF011780140402913D111480078C00702D46A
S1130E0080200002C0E7012114480078C0B24008E5
S1130E104007400F8140124889B2FFF76AF9B3E7EF
S1130E2011780840802801D10448ADE7B4E70000F8
S1130E3000810440004006400540064000127A004C
S1130E4001400640034006404480044020E0FF1F68
S1130E5095080000710B000004400640084006405D
S1130E6000093D00F0B535490A7803781B011024C8
S1130E70234013430B700A78FD2313400B700A7848
S1130E80FE2313400B704278022A02D04278032AD0
S1130E9003D10A78022313430B704278032A03D147
S1130EA00A78012313430B702021254A1378847890
S1130EB064010C401C4314701F23E024214D2E7840
S1130EC02640C7787F1E1F4037432F7015782C406B
S1130ED014701D4C25780025257015784668360A4F
S1130EE033402B4313702278436813432370174A0B
S1130EF01378047AE4011C43437A857A1D436B0119
S1130F00194021431170C168114A1160C078001F53
S1130F10042804D20F48017802220A430270F0BD6B
S1130F2080B50D480178890603D50178DF220A408F
S1130F30027007480068804701BD000002A0064017
S1130F4000A006400AA0064001A0064003A00640F7
S1130F5088E0FF1F0BA0064004A006407047FEE790
S1130F600121C006C00E81400148016070470000A5
S1130F7080E100E080B5FFF7B1FBFFF7E5FBFFF789
S1130F8025FCFFF7F1FCFFF713FC1F20FFF7E8FF38
S1130F90FFF7A2FCFFF78EFBFFF7EDFC0028FBD167
S1130FA0FFF765FCF8E770B40123002413E001683F
S1130FB0001D194202D04D466918491E0C60091DD6
S1130FC0121F042AFAD20D00960701D50C80AD1C1D
S1130FD01A4000D02C700268001D002AE7D170BCB2
S1130FE0704730B401220EE00368C3184468083027
S1130FF0144202D04D462C19641E1D6825601B1D29
S1131000241D091FF9D10168001D0029ECD130BC51
S11310107047FEE710B5074979441831064C7C4403
S1131020163404E0081D0A68891888470100A142A3
S1131030F8D110BD2C0000004C00000072B604482A
S1131040044901600448804762B604480047000030
S113105008ED00E000000000E10C0000D1100000E9
S113106047FFFFFF6800000028E0FF1F00000000AA
S113107073FFFFFF280000002CF1FFFF00E0FF1FBB
S11310800000000000F00DF8002801D0FFF7C2FFB7
S113109000BF00BF002000BF00BFFFF76BFF00F0E0
S11310A002F80120704780B500F002F801BDFEE7A8
S11310B00746384600F002F8FBE7FEE780B500BFBC
S11310C000BF024A11001820ABBEFBE72600020055
S11310D00548014603B4684680F3098800BF00BF91
S11310E000BF00BFFFF7CEFFA5EDF5FE00480047A7
S11310F04511000000480047451100000048004722
S11311004511000000480047451100000048004711
S11311104511000000480047451100000048004701
S113112045110000004800474511000000480047F1
S113113045110000004800474511000000480047E1
S1131140451100000048004745110000020300005B
S10B11500203000001030A0080
S90310D11B
