S0120000426F6F744C6F616465722E7372656327
S113000030E8FF1FB10A0000E1010000870A000088
S113001000000000000000000000000000000000DC
S1130020000000000000000000000000070B0000BA
S11300300000000000000000330B00003F0B000034
S1130040810B0000890B0000910B0000990B00004C
S1130050D90B0000D90B0000D90B0000D90B00000C
S1130060A10B0000A90B0000B10B0000B90B0000AC
S1130070BD070000C10B0000C90B0000710B00009C
S1130080D90B0000D90B0000D90B0000D90B0000DC
S1130090D90B0000D90B000091060000D10B000021
S11300A0D90B0000D90B0000D90B0000D90B0000BC
S11300B0D90B0000D90B0000D90B0000D90B0000AC
S11300C030B50B00DBB2202B68DA5378042B65DAE9
S11300D01378082B62DA93780D2B5FDA0B00DBB20E
S11300E09B00C3582E4C1C400B00DBB29B00C45039
S11300F00B00DBB29B00C35814782402E025ED000A
S113010025401D430B00DBB29B00C5500B00DBB246
S11301109B00C3580224A3430C00E4B2A40003517F
S11301200B00DBB29B00C3580124A3430C00E4B2D0
S1130130A40003515378022B02D05378032B09D126
S11301400B00DBB29B00C35802241C430B00DBB240
S11301509B00C4505378032B09D10B00DBB29B00E6
S1130160C35801241C430B00DBB29B00C4500B009A
S1130170DBB29B00C3580B4C1C400B00DBB29B0052
S1130180C4500B00DBB29B00C35892781204F024D5
S1130190240314401C43C9B28900445030BD0000FC
S11301A0FFF8FFFFFFFFF0FF00B50B00DBB2202BD1
S11301B015DA1300DBB2022B11DA1300DBB2012BC8
S11301C005D1426901238B401343436107E0D2B256
S11301D0002A04D1426901238B409A43426100BD45
S11301E0FEE70000704700000000000088130000D4
S11301F0010000009104000000000004340000002D
S11302000000010093040000000040010000000011
S10B02100000000000000000E2
S1130400FFFFFFFFFFFFFFFFFFFFFFFFFEFFFFFFF9
S11304100121C006C00E81405E4801607047F0B5FE
S1130420020052B2002A1CD518230F255A4C020090
S113043052B22A40083A92089200060076B2354039
S1130440083DAD08AD006559FF26C7001F40BE40FA
S1130450B5438901C9B2C000034099402943A15062
S113046015E04E4A1823040064B2A408A4001459E9
S1130470FF25C6001E40B540AC438901C9B2C50082
S11304802B409940214340B2800880001150F0BDB8
S11304907047704780B542480168802292010A4340
S11304A00260404A1D214048FFF70AFE01221D2137
S11304B03E48FFF779FE01BD80B5394801688022C6
S11304C052010A4302603A4A05213A48FFF7F8FD0F
S11304D0012205213848FFF767FE01BD80B5304889
S11304E00168802212010A430260344A032134481D
S11304F0FFF7E6FD002203213248FFF755FE01BD58
S113050080B5314800F076F81620FFF781FF02210C
S11305101620FFF784FF01BD10B52C480178022294
S11305200A4302702A48017801220A4302702948CA
S11305300168294A0A4002600168C02212050A4380
S1130540026017480168802292000A43026023482F
S113055001688022D2000A430260214C214A012111
S11305602000FFF7ADFD204A02212000FFF7A8FD7F
S11305701E4800F0C5F81E48017804220A430270A0
S11305800C20FFF745FF03210C20FFF748FF10BDA7
S11305900000000000E100E01CED00E000E400E0E9
S11305A038800440F00B000000D0044000F10F40FC
S11305B0EC0B000000C00440C0F00F40E80B00004A
S11305C000B0044080F00F4000E0FF1F00400640F0
S11305D00140064004800440FFFFFFF334800440E0
S11305E000900440E00B0000E40B000010E0FF1F4B
S11305F003A0064070B50400002039480168802239
S113060012040A4302600225ED433648016829407A
S113061001606178002904D10168012291430160DD
S113062003E0016801220A43026000F0FFF86668F3
S11306302D480068FA21890000F0B6F92B490968B1
S1130640090C4907490F491CC9B200F0ADF94643EA
S1130650761E2748217809014650217A01290DD1B7
S11306602178090141182278120180188068022239
S113067002438A60E0681F49086008E021780901A4
S11306804118227812018018806805408D6070BD81
S113069010B50124184800682040002806D0002026
S11306A0144909688847002000F00DF813480068D1
S11306B00440002C06D001200E4909688847012017
S11306C000F001F810BD0A490200D2B212018A18E2
S11306D0D26801231343C0B200010818C3607047F5
S11306E03C8004400070034020E0FF1F448004402D
S11306F00071034028E0FF1F0C7103401C7103408C
S1130700F0B53F490A7803781B01102423401343B2
S11307100B700A78FD2313400B700A78FE231340F4
S11307200B704278022A02D04278032A03D10A7855
S1130730022313430B704278032A03D10A7801235E
S113074013430B7020212F4A1378847864010C40E2
S11307501C4314701F23E0242B4D2E782640C778A9
S11307607F1E1F4037432F7015782C401470274C80
S113077025780025257015784668360A33402B43C2
S113078013702278436813432370214A1378047A40
S1130790E4011C43437A857A1D436B0119402143CC
S11307A01170C1681B4A1160C078001F042804D26C
S11307B01948017802220A430270F0BD80B5174837
S11307C00178890603D50178DF220A4002701148B6
S11307D00068804701BD00B50D490A78082313431A
S11307E00B700E4A13781B06FBD50D4B187010784E
S11307F04006FCD50878F72202400A7000BD0000CC
S113080002A0064000A006400AA0064001A006403F
S113081003A006402CE0FF1F0BA0064004A00640E6
S113082007A00640002053490860704730B5C02037
S1130830514A1178030019427CD1504C207840066B
S113084068D41078400726D44D484E49097830239F
S11308500B40002B14D0117838230B40302B04D0DC
S1130860382B05D1C021C90011E0A021C9000EE038
S113087020211278D2B2D2085207520F914006E0DA
S113088001211278D2B2D2085207520F914089B294
S113089000F08AF801E0802000023B490978C9B2DF
S11308A0E0220A40002A0ED0202A18D0402A1AD06A
S11308B0602A1CD0802A1ED0A02A20D0C02A22D090
S11308C0E02A23D025E0A021890048432F49096864
S11308D0090F491C00F068F82D49086030BDA021BB
S11308E0C9004843F2E7F021C9004843EEE7A021DC
S11308F009014843EAE7B72189004843E6E7B721FD
S1130900C9004843E2E723494843DFE72249484313
S1130910DCE7DBE71F2521480178C9B22940491CDF
S1130920174889B200F040F821780D401835ADB26F
S11309306843CBE711780140402913D1114800786E
S1130940C00702D480200002C0E7012114480078C7
S1130950C0B240084007400F8140124889B200F0FD
S113096023F8B3E711780840802801D10448ADE7A3
S1130970B4E7000000810440004006400540064002
S113098000127A00014006400340064044800440BF
S113099020E0FF1F95080000710B00000440064092
S11309A00840064000093D000022030A8B420BD296
S11309B003098B4219D243088B422ED2411A00D22A
S11309C00146524110467047FF2209023FD01206E9
S11309D08B4205D3121209028B4201D3121209026F
S11309E003098B4219D300E0090AC3098B4201D3DE
S11309F0CB01C01A524183098B4201D38B01C01A27
S1130A00524143098B4201D34B01C01A524103099D
S1130A108B4201D30B01C01A5241C3088B4201D34C
S1130A20CB00C01A524183088B4201D38B00C01AF9
S1130A30524143088B4201D34B00C01A52418842B1
S1130A4000D3401A5241CFD201461046704708B530
S1130A50FFF7C8FB08BD30B401220EE00368C318D9
S1130A6044680830144202D04D462C19641E1D6897
S1130A7025601B1D241D091FF9D10168001D0029D3
S1130A80ECD130BC7047FEE710B507497944183102
S1130A90064C7C44163404E0081D0A68891888470B
S1130AA00100A142F8D110BD2C0000003C00000060
S1130AB072B60448044901600448804762B6044899
S1130AC00047000008ED00E00000000025080000D9
S1130AD0550B000083FFFFFF300000000CF7FFFF01
S1130AE000E0FF1F0000000080B5FFF7D3FCFFF714
S1130AF0E3FCFFF7F3FCFFF703FDFFF70DFD4820D0
S1130B00FFF769FEFEE7FEE700F00DF8002801D0CC
S1130B10FFF7BAFF00BF00BF002000BF00BFFFF710
S1130B20E3FF00F002F80120704780B500F002F8FE
S1130B3001BDFEE70746384600F002F8FBE7FEE792
S1130B4080B500BF00BF024A11001820ABBEFBE70E
S1130B50260002000548014603B4684680F309886C
S1130B6000BF00BF00BF00BFFFF7CEFFA5EDF5FE3D
S1130B7080B502480068804701BD000024E0FF1FE3
S1130B8000480047D90B000000480047D90B00007B
S1130B9000480047D90B000000480047D90B00006B
S1130BA000480047D90B000000480047D90B00005B
S1130BB000480047D90B000000480047D90B00004B
S1130BC000480047D90B000000480047D90B00003B
S1130BD000480047D90B000000480047D90B00002B
S1130BE0020300000203000001030A0001000000E8
S1070BF001000000FC
S9030B559C
