S0120000426F6F744C6F616465722E7372656327
S113000038E9FF1F110D00005D0100009701000099
S113001000000000000000000000000000000000DC
S1130020000000000000000000000000BF0C000001
S113003000000000000000000F0D0000830D000010
S1130040D10D0000D90D0000E10D0000E90D000004
S1130050290E0000290E0000290E0000290E0000C0
S1130060F10D0000F90D0000010E0000090E000062
S1130070E9080000110E0000190E0000C10D000077
S1130080290E0000290E0000290E0000290E000090
S1130090290E0000290E0000ED090000210E0000C9
S11300A0290E0000290E0000290E0000290E000070
S11300B0290E0000290E0000290E0000A1040000F2
S11300C025480021802252008154FF22921C815431
S11300D0704700B5204880214900415CFF22921CF2
S11300E0805C814201D1012000E00020C0B200BD4B
S11300F000B51948FF21891C415C491CC9B2802202
S11301005200805C814201D1012000E00020C0B295
S113011000BD10B50400FFF7EBFF002808D10E481E
S1130120FF21891C41180A7884540878401C0870FF
S113013010BD80B5FFF7CDFF002801D0002009E0F5
S113014005488021490041180A78805C0A78521CCD
S11301500A70C0B202BD000024E0FF1FFEE700B534
S11301600B00DBB2202B15DA1300DBB2022B11DA01
S11301701300DBB2012B05D1426901238B401343E9
S1130180436107E0D2B2002A04D1426901238B40C3
S11301909A43426100BDFEE7704770B40123002416
S11301A013E00168001D194202D04D466918491E2A
S11301B00C60091D121F042AFAD20D00960701D5FE
S11301C00C80AD1C1A4000D02C700268001D002A5F
S11301D0E7D170BC704700000000000088130000E5
S11301E0010000009104000000000004340000003D
S10F01F000000100930400000000400126
S1130400FFFFFFFFFFFFFFFFFFFFFFFFFEFFFFFFF9
S11304100121C006C00E8140744801607047F0B5E8
S1130420020052B2002A1CD518230F25704C02007A
S113043052B22A40083A92089200060076B2354039
S1130440083DAD08AD006559FF26C7001F40BE40FA
S1130450B5438901C9B2C000034099402943A15062
S113046015E0644A1823040064B2A408A4001459D3
S1130470FF25C6001E40B540AC438901C9B2C50082
S11304802B409940214340B2800880001150F0BDB8
S1130490704780B558480078C0B2FFF73AFE01BDF6
S11304A010B556480068000716D50321544800F0DB
S11304B0A9F9FA200001401E0028FCD100F047F8F9
S11304C0002809D1002405E0FFF733FEC0B200F094
S11304D018FA641CFF2CF7D910BD80B5494801688F
S11304E0802292010A430260474A1D21474800F0D6
S11304F0FAF801221D214648FFF731FE01BD80B5FF
S113050040480168802252010A430260414A0521A1
S1130510414800F0E8F8012205214048FFF71FFE9A
S113052001BD80B537480168802212010A43026088
S11305303B4A0321324800F0D6F80022032139480F
S1130540FFF70DFE01211F2000F048F901BD3648D8
S11305500068C1080800C007C00F704780B5334861
S113056000F0F6F91620FFF753FF01211620FFF7DC
S113057056FF01BD10B52E48017802220A430270CD
S11305802C48017801220A4302702B4801682B4A47
S11305900A4002600168C02212050A430260194839
S11305A00168802292000A43026025480168802283
S11305B0D2000A430260234C234A0121200000F0A8
S11305C092F8224A0221200000F08DF8204800F021
S11305D02DF92048017804220A4302700C20FFF709
S11305E017FF00210C20FFF71AFF10BD00E100E007
S11305F01CED00E000E400E007A00640A0B00440C9
S113060000B0044038800440400E000000D0044094
S113061000F10F403C0E000000C00440C0F00F4049
S1130620380E000080F00F40900000F800E0FF1F3B
S1130630004006400140064004800440FFFFFFF3F1
S11306403480044000900440300E0000340E00005A
S113065010E0FF1F03A006400121C006C00E814028
S11306605848016070470121C006C00E81405648B9
S113067001607047F0B5020052B2002A1CD518235D
S11306800F25524C020052B22A40083A92089200B6
S1130690060076B23540083DAD08AD006559FF2629
S11306A0C7001F40BE40B5438901C9B2C000034022
S11306B099402943A15015E0454A1823040064B227
S11306C0A408A4001459FF25C6001E40B540AC433D
S11306D08901C9B2C5002B409940214340B280082A
S11306E080001150F0BD30B50B00DBB2202B68DA6E
S11306F05378042B65DA1378082B62DA93780D2B80
S11307005FDA0B00DBB29B00C358324C1C400B0079
S1130710DBB29B00C4500B00DBB29B00C3581478BF
S11307202402E025ED0025401D430B00DBB29B00B5
S1130730C5500B00DBB29B00C3580224A3430C003A
S1130740E4B2A40003510B00DBB29B00C3580124A4
S1130750A3430C00E4B2A40003515378022B02D04B
S11307605378032B09D10B00DBB29B00C35802243E
S11307701C430B00DBB29B00C4505378032B09D1FC
S11307800B00DBB29B00C35801241C430B00DBB2FB
S11307909B00C4500B00DBB29B00C3580E4C1C40A2
S11307A00B00DBB29B00C4500B00DBB29B00C358B0
S11307B092781204F024240314401C43C9B2890023
S11307C0445030BD00E100E080E200E01CED00E0B8
S11307D000E400E0FFF8FFFFFFFFF0FF10B50400A6
S11307E00800C0B210280CDAC9B2200040B2FFF7EA
S11307F041FF200040B2FFF736FF200040B2FFF770
S11308002BFF10BD00B50A00D2B2202A0CDA012257
S1130810A023C358CB401340002B05D0A023C358BA
S11308208A401A43A021425000BD0000F0B53F4960
S11308300A7803781B011024234013430B700A78B1
S1130840FD2313400B700A78FE2313400B7042788B
S1130850022A02D04278032A03D10A7802231343DE
S11308600B704278032A03D10A78012313430B70D7
S113087020212F4A1378847864010C401C4314709F
S11308801F23E0242B4D2E782640C7787F1E1F405F
S113089037432F7015782C401470274C2578002589
S11308A0257015784668360A33402B431370227836
S11308B0436813432370214A1378047AE4011C43E8
S11308C0437A857A1D436B01194021431170C16835
S11308D01B4A1160C078001F042804D2194801780B
S11308E002220A430270F0BD80B5174801788906D8
S11308F003D50178DF220A4002701148006880475E
S113090001BD00B50D490A78082313430B700E4A44
S113091013781B06FBD50D4B187010784006FCD5D8
S11309200878F72202400A7000BD000002A00640C9
S113093000A006400AA0064001A0064003A006400D
S113094030E1FF1F0BA0064004A0064007A00640AC
S113095070B50400002039480168802212040A435B
S113096002600225ED433648016829400160617840
S1130970002904D1016801229143016003E0016868
S113098001220A43026000F06DF866682D48006891
S1130990FA21890000F024F92B490968090C490758
S11309A0490F491CC9B200F01BF94643761E27487B
S11309B0217809014650217A01290DD121780901B4
S11309C041182278120180188068022202438A604A
S11309D0E0681F49086008E021780901411822787D
S11309E012018018806805408D6070BD10B5012427
S11309F0184800682040002806D0002014490968DF
S1130A008847002000F00DF8134800680440002CCB
S1130A1006D001200E4909688847012000F001F83A
S1130A2010BD0A490200D2B212018A18D268012309
S1130A301343C0B200010818C36070473C800440EF
S1130A400070034020E0FF1F448004400071034015
S1130A502CE1FF1F0C7103401C710340002053491B
S1130A600860704730B5C020514A1178030019421C
S1130A707CD1504C2078400668D41078400726D4A6
S1130A804D484E49097830230B40002B14D011787F
S1130A9038230B40302B04D0382B05D1C021C9009A
S1130AA011E0A021C9000EE020211278D2B2D208B0
S1130AB05207520F914006E001211278D2B2D208B7
S1130AC05207520F914089B200F08AF801E0802069
S1130AD000023B490978C9B2E0220A40002A0ED03C
S1130AE0202A18D0402A1AD0602A1CD0802A1ED06E
S1130AF0A02A20D0C02A22D0E02A23D025E0A02199
S1130B00890048432F490968090F491C00F068F817
S1130B102D49086030BDA021C9004843F2E7F02107
S1130B20C9004843EEE7A02109014843EAE7B72199
S1130B3089004843E6E7B721C9004843E2E723496F
S1130B404843DFE722494843DCE7DBE71F25214828
S1130B500178C9B22940491C174889B200F040F80D
S1130B6021780D401835ADB26843CBE711780140C8
S1130B70402913D111480078C00702D48020000214
S1130B80C0E7012114480078C0B240084007400F74
S1130B908140124889B200F023F8B3E71178084085
S1130BA0802801D10448ADE7B4E700000081044087
S1130BB0004006400540064000127A00014006400D
S1130BC0034006404480044020E0FF1F95080000D5
S1130BD0710B0000044006400840064000093D0037
S1130BE00022030A8B420BD203098B4219D2430819
S1130BF08B422ED2411A00D2014652411046704710
S1130C00FF2209023FD012068B4205D312120902B9
S1130C108B4201D31212090203098B4219D300E05B
S1130C20090AC3098B4201D3CB01C01A524183097B
S1130C308B4201D38B01C01A524143098B4201D329
S1130C404B01C01A524103098B4201D30B01C01A54
S1130C505241C3088B4201D3CB00C01A52418308CE
S1130C608B4201D38B00C01A524143088B4201D3FB
S1130C704B00C01A5241884200D3401A5241CFD28D
S1130C8001461046704708B5FFF786FA08BD30B430
S1130C9001220EE00368C31844680830144202D0ED
S1130CA04D462C19641E1D6825601B1D241D091F3B
S1130CB0F9D10168001D0029ECD130BC7047FEE772
S1130CC010B5074979441831064C7C44163404E0C5
S1130CD0081D0A68891888470100A142F8D110BD8F
S1130CE0540000007400000080B5FFF7BBFEFFF75E
S1130CF0F4FBFFF704FCFFF714FCFFF72FFCFFF7EE
S1130D0039FC4620FFF7FDFDFFF7DAF9FEE7FEE7C1
S1130D1072B60448044901600448804762B6044836
S1130D200047000008ED00E0000000005D0A00003C
S1130D30A50D000067F4FFFF1001000024E0FF1F71
S1130D40000000004BFFFFFF240000008CF4FFFFB5
S1130D5000E0FF1F0000000000F00DF8002801D0A3
S1130D60FFF7AEFF00BF00BF002000BF00BFFFF7CA
S1130D70BBFF00F002F80120704780B500F002F8D4
S1130D8001BDFEE70746384600F002F8FBE7000025
S1130D9080B500BF00BF024A11001820ABBEFBE7BC
S1130DA0260002000548014603B4684680F309881A
S1130DB000BF00BF00BF00BFFFF7CEFFA5EDF5FEEB
S1130DC080B502480068804701BD000028E1FF1F8C
S1130DD000480047290E000000480047290E000083
S1130DE000480047290E000000480047290E000073
S1130DF000480047290E000000480047290E000063
S1130E0000480047290E000000480047290E000052
S1130E1000480047290E000000480047290E000042
S1130E2000480047290E000000480047290E000032
S1130E30020300000203000001030A000100000095
S1070E4001000000A9
S9030DA54A
