S01100004C45445F426C696E6B2E73726563EF
S113000000E8FF1FB5010000030200000F0200001A
S113001000000000000000000000000000000000DC
S1130020000000000000000000000000B502000015
S11300300000000000000000B7020000B902000048
S11300404D020000550200005D0200006502000040
S1130050AD020000AD020000AD020000AD020000E0
S11300606D020000750200007D02000085020000A0
S11300708D020000950200009D020000AD02000008
S1130080AD020000AD020000AD020000AD020000B0
S1130090AD020000AD020000AD020000A5020000A8
S11300A0AD020000AD020000AD020000AD02000090
S11300B0AD020000AD020000AD020000AD02000080
S11300C030B580222C4B1C781442FAD030241C709A
S11300D006242A4D2C700400240C294D2C70040A8B
S11300E0284D2C70284C2070080E284C20700800D5
S11300F0000C274C2070080A264C207026480170FA
S11301001A7030BD10B525494118254A914213D3C0
S11301108021194A13780B42FAD030231370092333
S1130120164C237003001B0C154C2370030A154C4A
S11301302370154B1870117010BD1CB572B662B6E1
S1130140002000680090174C00992000FFF7B8FFCA
S113015000991548FFF7B4FF00991448FFF7B0FF62
S113016000991348FFF7ACFF0E4800680090200088
S1130170FFF7C8FFFEE7000000000240070002404E
S11301800600024005000240040002400B00024049
S11301900A000240090002400800024000FCFFFF80
S11301A0FF030000F0FF0100E0FF0100D0FF0100A9
S11301B0C0FF010072B60448044901600448804746
S11301C062B604480047000008ED00E000000000AB
S11301D0410200002502000000F00DF8002801D0C3
S11301E000BF00BF00BF00BF002000BF00BFFFF77B
S11301F0A4FF00F002F80120704780B500F002F877
S113020001BDFEE70746384600F002F8FBE7FEE7CB
S113021080B500BF00BF024A11001820ABBEFBE747
S1130220260002000548014603B4684680F30988A5
S113023000BF00BF00BF00BFFFF7CEFFA5EDF5FE76
S113024000200149086070470081044000480047CD
S1130250AD02000000480047AD020000004800471E
S1130260AD02000000480047AD020000004800470E
S1130270AD02000000480047AD02000000480047FE
S1130280AD02000000480047AD02000000480047EE
S1130290AD02000000480047AD02000000480047DE
S11302A0AD02000000480047AD02000000480047CE
S10D02B0AD020000FEE7FEE7FEE7E2
S1130400FFFFFFFFFFFFFFFFFFFFFFFFFEFFFFFFF9
S9030225D5
