S01100004669726D77617265312E73726563A5
S1130400FFFFFFFFFFFFFFFFFFFFFFFFFEFFFFFFF9
S113100030E8FF1F551B0000C1100000D51100007F
S113101000000000000000000000000000000000CC
S1131020000000000000000000000000291B000078
S11310300000000000000000CB1B0000D71B0000D4
S1131040091C0000111C0000191C0000211C0000D8
S1131050691C0000691C0000691C0000691C000078
S1131060291C0000311C0000391C0000411C000038
S1131070491C0000511C0000591C0000691C0000A0
S1131080691C0000691C0000691C0000691C000048
S1131090691C0000691C000005190000611C0000A7
S11310A0691C0000691C0000691C0000691C000028
S11310B0691C0000691C0000691C00008114000008
S11310C0FEE700B50B00DBB2202B15DA1300DBB210
S11310D0022B11DA1300DBB2012B05D14269012383
S11310E08B401343436107E0D2B2002A04D1426922
S11310F001238B409A43426100BD00B50A00D2B27D
S1131100202A04DA426801238B401343436000BD64
S113111000B50A00D2B2202A04DA826801238B4087
S11311201343836000BD0022030A8B420BD20309E0
S11311308B4219D243088B422ED2411A00D2014667
S1131140524110467047FF2209023FD012068B42DB
S113115005D3121209028B4201D3121209020309A8
S11311608B4219D300E0090AC3098B4201D3CB0196
S1131170C01A524183098B4201D38B01C01A5241D8
S113118043098B4201D34B01C01A524103098B42DC
S113119001D30B01C01A5241C3088B4201D3CB00C7
S11311A0C01A524183088B4201D38B00C01A5241AA
S11311B043088B4201D34B00C01A5241884200D3EA
S11311C0401A5241CFD201461046704708B500F08C
S11311D003F808BDFEE700007047000000000000AF
S11311E0C800000001000000DF140000010000003E
S11311F06400000001000000DF1400000000400152
S10B12000000000002000000E0
S11314000121C006C00E81407E4801607047F0B5DE
S1131410020052B2002A1CD518230F257A4C020070
S113142052B22A40083A92089200060076B2354039
S1131430083DAD08AD006559FF26C7001F40BE40FA
S1131440B5438901C9B2C000034099402943A15062
S113145015E06E4A1823040064B2A408A4001459C9
S1131460FF25C6001E40B540AC438901C9B2C50082
S11314702B409940214340B2800880001150F0BDB8
S113148080B563480068000728D50321614800F04F
S1131490B9F9FA200001401E0028FCD100F09BF8A5
S11314A000281BD15C48017801290AD1022101706E
S11314B00021002000F008FA0121012000F004FAC4
S11314C00CE00178022909D10121017001210020D9
S11314D000F0FAF90021012000F0F6F901BD38B559
S11314E004002000C0B200281BD14C4D28780028ED
S11314F00AD11D214A48FFF70BFE05214948FFF791
S113150007FE012028700CE02878012809D11D214C
S11315104348FFF7F2FD05214248FFF7EEFD0020A6
S11315202870E4B2012C1BD13C4C207800280AD14D
S11315301D213B48FFF7ECFD05213A48FFF7DDFD8F
S1131540012020700CE02078012809D11D213448A5
S1131550FFF7D3FD05213348FFF7DAFD00202070A3
S113156031BD80B530480168802292010A4302608F
S11315702E4A1D212E4800F0B6F801221D212D48C7
S1131580FFF79FFD01BD80B5274801688022520105
S11315900A430260284A0521284800F0A4F80122E1
S11315A005212748FFF78DFD01BD80B51E48016860
S11315B0802212010A430260224A0321154800F0E6
S11315C092F8002203212048FFF77BFD00211F2011
S11315D000F004F901BD1D480068C1080800C007F7
S11315E0C00F704780B51A4800F020F9194800F080
S11315F01DF91620FFF704FF01211620FFF707FF4E
S113160001BD000000E100E01CED00E000E400E0AA
S1131610A0B0044000B0044028E0FF1F29E0FF1FF1
S1131620000100F8C00000F838800440781C000075
S113163000D0044000F10F40741C000000C00440BE
S1131640C0F00F40701C000080F00F40900000F8C4
S113165000E0FF1F10E0FF1F0121C006C00E814003
S11316605848016070470121C006C00E81405648A9
S113167001607047F0B5020052B2002A1CD518234D
S11316800F25524C020052B22A40083A92089200A6
S1131690060076B23540083DAD08AD006559FF2619
S11316A0C7001F40BE40B5438901C9B2C000034012
S11316B099402943A15015E0454A1823040064B217
S11316C0A408A4001459FF25C6001E40B540AC432D
S11316D08901C9B2C5002B409940214340B280081A
S11316E080001150F0BD30B50B00DBB2202B68DA5E
S11316F05378042B65DA1378082B62DA93780D2B70
S11317005FDA0B00DBB29B00C358324C1C400B0069
S1131710DBB29B00C4500B00DBB29B00C3581478AF
S11317202402E025ED0025401D430B00DBB29B00A5
S1131730C5500B00DBB29B00C3580224A3430C002A
S1131740E4B2A40003510B00DBB29B00C358012494
S1131750A3430C00E4B2A40003515378022B02D03B
S11317605378032B09D10B00DBB29B00C35802242E
S11317701C430B00DBB29B00C4505378032B09D1EC
S11317800B00DBB29B00C35801241C430B00DBB2EB
S11317909B00C4500B00DBB29B00C3580E4C1C4092
S11317A00B00DBB29B00C4500B00DBB29B00C358A0
S11317B092781204F024240314401C43C9B2890013
S11317C0445030BD00E100E080E200E01CED00E0A8
S11317D000E400E0FFF8FFFFFFFFF0FF10B5040096
S11317E00800C0B210280CDAC9B2200040B2FFF7DA
S11317F041FF200040B2FFF736FF200040B2FFF760
S11318002BFF10BD00B50A00D2B2202A0CDA012247
S1131810A023C358CB401340002B05D0A023C358AA
S11318208A401A43A021425000BD000070B5040054
S1131830002048480168802212040A4302600225FD
S1131840ED4345480168294001606178002904D1CD
S1131850016801229143016003E0016801220A4307
S1131860026000F08BF866683C480068FA21890041
S1131870FFF759FC3A490968090C4907490F491C03
S1131880C9B2FFF750FC4643761E36482178090159
S11318904650217A01290DD1217809014118227875
S11318A0120180188068022202438A60E0682E498F
S11318B0086008E021780901411822781201801893
S11318C0806805408D6070BD00B5C9B200290CD197
S11318D024490200D2B212018A18926801239A4361
S11318E0C0B20001081882600BE01E490200D2B2A7
S11318F012018A18926801231343C0B20001081828
S1131900836000BD10B501241848006820400028F9
S113191006D00020144909688847002000F00DF81B
S1131920134800680440002C06D001200E490968C1
S11319308847012000F001F810BD0A490200D2B224
S113194012018A18D26801231343C0B20001081897
S1131950C36070473C8004400070034020E0FF1FD8
S1131960448004400071034024E0FF1F0C710340D5
S11319701C710340002053490860704730B5C020F3
S1131980514A1178030019427CD1504C207840060A
S113199068D41078400726D44D484E49097830233E
S11319A00B40002B14D0117838230B40302B04D07B
S11319B0382B05D1C021C90011E0A021C9000EE0D7
S11319C020211278D2B2D2085207520F914006E079
S11319D001211278D2B2D2085207520F914089B233
S11319E0FFF7A1FB01E0802000023B490978C9B25E
S11319F0E0220A40002A0ED0202A18D0402A1AD009
S1131A00602A1CD0802A1ED0A02A20D0C02A22D02E
S1131A10E02A23D025E0A021890048432F49096802
S1131A20090F491CFFF77FFB2D49086030BDA02139
S1131A30C9004843F2E7F021C9004843EEE7A0217A
S1131A4009014843EAE7B72189004843E6E7B7219B
S1131A50C9004843E2E723494843DFE722494843B2
S1131A60DCE7DBE71F2521480178C9B22940491C7E
S1131A70174889B2FFF757FB21780D401835ADB2EE
S1131A806843CBE711780140402913D1114800780D
S1131A90C00702D480200002C0E701211448007866
S1131AA0C0B240084007400F8140124889B2FFF796
S1131AB03AFBB3E711780840802801D10448ADE728
S1131AC0B4E70000008104400040064005400640A1
S1131AD000127A000140064003400640448004405E
S1131AE020E0FF1F95080000710B00000440064031
S1131AF00840064000093D0030B401220EE00368AE
S1131B00C31844680830144202D04D462C19641E90
S1131B101D6825601B1D241D091FF9D10168001DC6
S1131B200029ECD130BC7047FEE7000010B507492E
S1131B3079441831064C7C44163404E0081D0A68C4
S1131B40891888470100A142F8D110BD2C0000007B
S1131B503C00000072B60448044901600448804710
S1131B6062B604480047000008ED00E000100000E1
S1131B7075190000ED1B000081FFFFFF2C00000021
S1131B805CF6FFFF00E0FF1F0000000000F00DF80E
S1131B90002801D0FFF7CAFF00BF00BF002000BF2C
S1131BA000BF00F004F800F00CF80120704780B585
S1131BB0FFF7D7FCFFF7E7FCFFF7F7FCFFF712FD91
S1131BC0FEE780B500F002F801BDFEE7074638469F
S1131BD000F002F8FBE7FEE780B500BF00BF024A51
S1131BE011001820ABBEFBE72600020005480146A1
S1131BF003B4684680F3098800BF00BF00BF00BF7C
S1131C00FFF7C4FFA5EDF5FE00480047691C00007E
S1131C1000480047691C000000480047691C000098
S1131C2000480047691C000000480047691C000088
S1131C3000480047691C000000480047691C000078
S1131C4000480047691C000000480047691C000068
S1131C5000480047691C000000480047691C000058
S1131C6000480047691C000000480047691C000048
S10F1C7001030A00010000000100000054
S9031BEDF4
