S01100004669726D77617265322E73726563A4
S113000070E8FF1F5515000079080000830A0000FE
S113001000000000000000000000000000000000DC
S11300200000000000000000000000009B0D000024
S113003000000000000000002B12000077130000F5
S1130040151600001D160000251600002D160000D0
S11300506D1600006D1600006D1600006D16000090
S1130060351600003D160000451600004D16000030
S1130070410B0000551600005D1600007D010000D4
S11300806D1600006D1600006D1600006D16000060
S11300906D1600006D1600000513000065160000C3
S11300A06D1600006D1600006D1600006D16000040
S11300B06D1600006D1600006D1600006D16000030
S11300C030B534490A6880231B0513430B60324959
S11300D00A6803781B011024234013430B602F4943
S11300E00A6803239A430A6003220B684478144085
S11300F01C430C602A4B1C680325AC431C601C6821
S113010085782A4022431A60264A03789B00D358F4
S1130110C478640120252C401C4303789B00D450F0
S11301200B680C24A3430B600B680479A4000C2512
S113013025401D430D6001788900515843799B0186
S1130140402423400B43017889005350417901290D
S113015002D180681449086030BD10B4114A03000C
S1130160DBB29B00D3581F24A343C9B2C906C90EEE
S11301701943C0B28000115010BC704780B50A48C2
S11301800068804701BD0949C0B28000085880B2A8
S1130190704700003C8004400CB0034008B00340AA
S11301A020B0034000B0034058E0FF1F10B00340EC
S11301B00122D2070118090E7F3910D449421F3198
S11301C00FD4001805D2C0011043C84000D5D04355
S11301D07047C0011043C84005D440427047002016
S11301E070470042F3D51000704700000000000083
S11301F000000000000000000000000000000000FB
S113020000000000000000000000000000000000EA
S11302100000000000000000E803000001000000EE
S113022091040000000000043400000000000100FC
S11302307F0500000000000003010000A704000087
S11302400000400100000000000000000000000069
S10B02500000000000000000A2
S1130400FFFFFFFFFFFFFFFFFFFFFFFFFEFFFFFFF9
S11304100121C006C00E81409C4801607047F0B5C0
S1130420020052B2002A1CD518230F25984C020052
S113043052B22A40083A92089200060076B2354039
S1130440083DAD08AD006559FF26C7001F40BE40FA
S1130450B5438901C9B2C000034099402943A15062
S113046015E0C44A1823040064B2A408A400145973
S1130470FF25C6001E40B540AC438901C9B2C50082
S11304802B409940214340B2800880001150F0BDB8
S113049080B5C0B2002805D100F0BBF81A210020B5
S11304A0FFF75BFE01BD38B500F0ADF8794C0020D4
S11304B0FFF769FE2080784D208800F0B0F82860AE
S11304C02868764CAC492278920088502078401CE9
S11304D00A2100F077F9217031BDF8B504000D0050
S11304E02000FFF765FE0600300000F0D7F9010098
S11304F0200000F016FAA14900F06BFAFFF758FE4D
S113050000900024002E03D130202855641C21E0E3
S1130510002E04D52D202855641C704206002700A7
S11305200BE030000A2100F04DF93031E9557F1C11
S113053030000A2100F046F90600002EF1D1781EA1
S113054005E0295D2A5C2A55641C2954401E844216
S1130550F7DB3C002E202855641C0A260098310045
S113056000F030F930302855641C0098310000F058
S113057029F930312955641C00202855F1BD1CB5DA
S113058065486649097801700078552816D1002419
S113059010E00622694678482300DBB29B00C0586D
S11305A0FFF79BFF2020694648710621684600F04A
S11305B0D4FA641C2000C0B20A28EADB13BD80B55B
S11305C057480168802292010A430260554A1D215E
S11305D0554800F0F5FA01221D21694800F064FB3A
S11305E001BD80B54E480168802252010A43026071
S11305F04E4A05214E4800F0E3FA012205216148E4
S113060000F052FB01BD80B51D215D4800F068FB80
S113061001BD80B505215B4800F062FB01BD80B5DA
S113062080B200F02BF9434900F065FB00F0B6FB03
S113063041A20CCA00F0CBFB41A20CCA00F089FC19
S113064041A20CCA00F05FFD02000B0000204E49DD
S113065000F0E2FC00F0B8FD02BD80B54B4800F0AC
S1130660E5FD1620FFF7D4FE02211620FFF7D7FE82
S113067001BD80B54648FFF723FD0F20FFF7C8FEF4
S113068001210F20FFF7CBFE01BD000000E100E0D7
S11306901CED00E068E0FF1F5CE0FF1F6BE0FF1F44
S11306A010B52B48017802220A43027029480178C8
S11306B001220A43027028480168284A0A4002605D
S11306C00168C02212050A430260154801688022AD
S11306D092000A430260224801688022D2000A4341
S11306E00260204C204A0121200000F069FA1F4AD0
S11306F00221200000F064FA1D4800F0C3F92548E7
S1130700017804220A4302700C20FFF781FE0321C2
S11307100C20FFF784FE10BD6AE0FF1F07A006400F
S1130720388004408016000000D004407C1600008D
S113073000C0044000FF7F476666666666660A403E
S1130740B6F3FDD478E9E6BF79E9263108AC5C3F1D
S1130750004006400140064004800440FFFFFFF3D0
S113076034800440009004407416000078160000A1
S113077038E0FF1F00E400E000E0FF1F0000C84273
S113078000F10F40C0F00F400000394028E0FF1F87
S113079048E0FF1F03A00640F446002804D4494261
S11307A000F013F8404260474042002905D45FD06E
S11307B000F00BF8404249426047494200F005F816
S11307C04942604703460B43E6D40022030A8B42A6
S11307D00BD203098B4219D243088B422ED2411A01
S11307E000D20146524110467047FF2209023FD011
S11307F012068B4205D3121209028B4201D3121244
S1130800090203098B4219D300E0090AC3098B4288
S113081001D3CB01C01A524183098B4201D38B010E
S1130820C01A524143098B4201D34B01C01A5241B1
S113083003098B4201D30B01C01A5241C3088B42F6
S113084001D3CB00C01A524183088B4201D38B00E1
S1130850C01A524143088B4201D34B00C01A524183
S1130860884200D3401A5241CFD201461046704705
S113087008B500F07FFD08BDFEE700009D210200E1
S11308800AD002D4491E9218FCD5C905100A1206D2
S1130890524100D3012A4841704700009D210200C3
S11308A0EED55242F446FFF7EBFF0122D207104384
S11308B060470122D20703004B402ED4431A01D2D1
S11308C0C01AC91830B44B180418240E1B0E22D0B9
S11308D0FF2C20D0E31A182B1DDC09021143C40D90
S11308E0641E0002104394461925ED1A0A00AA401A
S11308F0D940451801D36D08A41CE405D209280A7F
S11309002D062A436546AA41604103181B0EFF2B9E
S113091001D3C00DC00530BC7047514006E05140C2
S1130920CCE70122D20703004B40F8D4431A03D288
S1130930C01AC9185040514030B44B180902114331
S11309400418240E1B0E40D0FF2C3AD025009D41E4
S11309500BD31ED8C50D4002401A0BD3ED05010080
S1130960400AC90591416841D5E7C50D40024918BF
S1130970401AD0D001214008491C0018FCD58C42F3
S113098004D36D1A000AED054019C4E7E8051040C8
S1130990C1E7182DBFDCAC1C0D00E140E5414D4022
S11309A0012D4941C40D00021043451A01D46D19AB
S11309B09543641EE405280A2D069541604130BC28
S11309C07047FF2BA7D1D843A5E72442A3D1002029
S11309D0A1E730B405004D400122D20715404B1861
S11309E00418240E2ED01B0E32D0FF2C34D0FF2B33
S11309F03AD0E4180002090210431143000A090A1C
S1130A009446C2B24A43000AC3B24B43000A484365
S1130A10110A5B181A43D2B2190A091801D44918E9
S1130A20641E080A7F3C23DBFE2C08DAE405090671
S1130A301143634699416041284330BC7047FF200D
S1130A40C005F9E728001B0EFF2BF6D1D043F4E7CD
S1130A502800FF2CF1D1F9E74002F7D1FF2B01D197
S1130A604902F3D1E005E7E7D8054902E4D0EDE710
S1130A7043020020641CDFD15B129B1CDCD9D80527
S1130A80DAE7FEE7F0B545490A7803781B0110243C
S1130A90234013430B700A78FD2313400B700A782C
S1130AA0FE2313400B704278022A02D04278032AB4
S1130AB003D10A78022313430B704278032A03D12B
S1130AC00A78012313430B702021354A1378847864
S1130AD064010C401C4314701F23E024314D2E7814
S1130AE02640C7787F1E1F4037432F7015782C404F
S1130AF014702D4C25780025257015784668360A23
S1130B0033402B4313702278436813432370274ADE
S1130B101378047AE4011C43437A857A1D436B01FC
S1130B20194021431170C168214A1160C078001F27
S1130B30042804D21F48017802220A430270F0BD3F
S1130B4080B51D480178890603D50178DF220A4063
S1130B50027017480068804701BD30B5134A137806
S1130B6008241C431470002309E0134C2478240641
S1130B70FBD51C00E4B2045D104D2C705B1C1C0002
S1130B800D00E4B2EDB2AC42EFD30B48007840065E
S1130B90FBD51078F7210140117030BD02A006404A
S1130BA000A006400AA0064001A0064003A006409B
S1130BB064E0FF1F0BA0064004A0064007A0064007
S1130BC030B50B00DBB2202B68DA5378042B65DADE
S1130BD01378082B62DA93780D2B5FDA0B00DBB203
S1130BE09B00C3582E4C1C400B00DBB29B00C4502E
S1130BF00B00DBB29B00C35814782402E025ED00FF
S1130C0025401D430B00DBB29B00C5500B00DBB23B
S1130C109B00C3580224A3430C00E4B2A400035174
S1130C200B00DBB29B00C3580124A3430C00E4B2C5
S1130C30A40003515378022B02D05378032B09D11B
S1130C400B00DBB29B00C35802241C430B00DBB235
S1130C509B00C4505378032B09D10B00DBB29B00DB
S1130C60C35801241C430B00DBB29B00C4500B008F
S1130C70DBB29B00C3580B4C1C400B00DBB29B0047
S1130C80C4500B00DBB29B00C35892781204F024CA
S1130C90240314401C43C9B28900445030BD0000F1
S1130CA0FFF8FFFFFFFFF0FF00B50B00DBB2202BC6
S1130CB015DA1300DBB2022B11DA1300DBB2012BBD
S1130CC005D1426901238B401343436107E0D2B24B
S1130CD0002A04D1426901238B409A43426100BD3A
S1130CE000B50A00D2B2202A04DAC26801238B407C
S1130CF01343C36000BD30B405004D400122D20748
S1130D0015404B180418240E25D01B0E2CD0FF2C94
S1130D1031D0FF2B34D0E41A0002090210431143EE
S1130D2043084808D10D1B1A02D2641EDB181B1895
S1130D30DB18834200D31B1A4941F9D37F3423DDE6
S1130D40FF2C05DAE40548086041284330BC7047AD
S1130D50FF20C005F9E728001B0E03D0FF2BF5D1B7
S1130D604902F3D0D043F1E7FF2C01D14002F9D17D
S1130D70FF20C005E9E74002F4D1FF2BF8D1F1E7E9
S1130D8028004902E2D0EDE70B0200202442DCD126
S1130D905B129B1CD9D9D805D7E7FEE701221206BE
S1130DA00118CA420AD28A420DD838221206090909
S1130DB08918C20FD20711434007704700D0490871
S1130DC00909014301E0C10FC90700207047F0B5CC
S1130DD00E005E400125ED072E40B446AE0ADF1832
S1130DE04C18F44208D2F7420ED2640D01D07F0DA4
S1130DF012D100206146F0BD05D1F74201D87F0D24
S1130E0005D10020C143F0BDFBD1640DF9D0002011
S1130E10C143490549088FE0E419C902DB022943AB
S1130E202B43DB0A460DC00231438E4630B487B2F1
S1130E3095B27D432E0CADB2140C7C43A419260C40
S1130E40240425439CB27C43A419190C7943270C30
S1130E50C919A4B20F043C43090C000C97B24743D0
S1130E602E0CBE193543ADB2170C4743360CBF19CF
S1130E70A6B2BF193E043543240C3E0C36199FB26A
S1130E804743BF19BCB23E0C89191F0C47437F1856
S1130E903E043443390C704680B297B247432E0C5B
S1130EA0BE193543ADB2170C4743360CBF19A6B271
S1130EB0BF193E043543240C3E0C36199FB24743F8
S1130EC0BF19BCB23E0C89191F0C47437F183E045E
S1130ED03443390C77463F0C90B278432E0C80197A
S1130EE00604ADB22E43050CA0B22D18120C7A43A1
S1130EF05019020C80B2240CA4189AB27A43121925
S1130F0014042043120C89181B0C7B43C91830BCF1
S1130F10EF0A394203D1B61940414941641E6F12A8
S1130F20BF0DE41B0BDBFF19BC4211DA24050027BB
S1130F304208AE417841614166463143F0BD641CCC
S1130F4005D1401C6141CF0201D34908F4E750E7C1
S1130F505DE7F0B40125ED070F005F404FD48B42ED
S1130F6000D1824205D98446100062468C4619009D
S1130F706346DF184C18640D7F0D3AD0661C760565
S1130F8037D0E61B352E34DCDB022B43DB0A0C0D99
S1130F90C9022943C912202E0DDB1700203E06D0BA
S1130FA01F00F741F3405F400026012A7741C01833
S1130FB071410DD217E01700F741F2405740F34159
S1130FC05A40B340F3405A400026801859410AD38E
S1130FD0A21C52050FD0C207012F7241170040080E
S1130FE0CB0718434908641C24054208AF417041EB
S1130FF06141F0BC7047641C21050020F9E76B4097
S113100010E06B40ABE7F742F3D1E943F1E7244248
S1131010EFD100200021ECE7F0B40125ED070F002B
S11310205F40EED40C00871A9C4105D2C01BA1413D
S1131030D219634169406B40AE0ADF184C18F44280
S1131040E1D2640D7F0DE2D0E61B362ED1DCDB024B
S11310502B43DB0AA4460C0DC9022943C90A012EFD
S113106028DC04D1D6075208DF073A435B08EF0AAD
S113107076429041994114D039423BD1B61940414E
S11310804941761C394204D1761C00184941394241
S1131090FAD0B9436746B74208D9A41B24052143B3
S11310A0A7E70042EAD13642E8D1A2E7E40AE10721
S11310B000209EE7202E0BDD203E1F00F340F74169
S11310C05F40012A002257417E42984191410BE042
S11310D01700F741F2405740F3415A40B340F34000
S11310E05A407E42904199410A0303D2641EB619C4
S11310F0404149410027641E24054208AE4178411D
S11311006141F0BC7047F0B40E005E400125ED076C
S11311102E40B446AE0ADF184C18F4423BD2F742D4
S113112041D2640D43D07F0D38D0E41BC902DB02E9
S113113029432B43CF0ADB0A0600B61A9F4104D287
S1131140641EB6197F41B6185F416812800D2418D9
S11311500018844222DCE80C0021B6197F41B61A3B
S11311609F4102D2B6185F413F1C40414941F4D32C
S1131170241C21DD2405B6197F41B61A9F4105D3ED
S11311803743C60737430026012F70416141664645
S11311903143F0BC7047FCD1F74205D20020C14373
S11311A049054908F3E704D00020C143F1E77F0D66
S11311B0FAD000206146ECE72442FAD1401C614198
S11311C00F03F6D30020E2E7012252054B18DA425E
S11311D001D9581570475B0D0722D2019B1A10D90B
S11311E0FF2B1DD2DB050122D2070A40134309035A
S11311F0020D1143490AC200524100D9491CC818C2
S113120070470AD1800A0A0302435212921C04D97D
S1131210D3070B40D00518437047C80FC007704769
S1131220C80F0002FF30C0057047FEE770B5040028
S1131230002048480168802212040A430260022503
S1131240ED4345480168294001606178002904D1D3
S1131250016801229143016003E0016801220A430D
S1131260026000F08DF866683C480068FA21890045
S1131270FFF7ABFA3A490968090C4907490F491CB9
S1131280C9B2FFF7A2FA4643761E3648217809010F
S11312904650217A01290DD121780901411822787B
S11312A0120180188068022202438A60E0682E4995
S11312B0086008E021780901411822781201801899
S11312C0806805408D6070BD00B5C9B200290CD19D
S11312D024490200D2B212018A18926801239A4367
S11312E0C0B20001081882600BE01E490200D2B2AD
S11312F012018A18926801231343C0B2000108182E
S1131300836000BD10B501241848006820400028FF
S113131006D00020144909688847002000F00DF821
S1131320134800680440002C06D001200E490968C7
S11313308847012000F001F810BD0A490200D2B22A
S113134012018A18D26801231343C0B2000108189D
S1131350C36070473C8004400070034054E0FF1FAA
S1131360448004400071034060E0FF1F0C7103409F
S11313701C7103407047FEE7002053490860704722
S113138030B5C020514A1178030019427CD1504C29
S11313902078400668D41078400726D44D484E493A
S11313A0097830230B40002B14D0117838230B40DC
S11313B0302B04D0382B05D1C021C90011E0A02165
S11313C0C9000EE020211278D2B2D2085207520F7F
S11313D0914006E001211278D2B2D2085207520F8E
S11313E0914089B2FFF7F1F901E0802000023B4906
S11313F00978C9B2E0220A40002A0ED0202A18D067
S1131400402A1AD0602A1CD0802A1ED0A02A20D0BC
S1131410C02A22D0E02A23D025E0A0218900484315
S11314202F490968090F491CFFF7CFF92D490860B6
S113143030BDA021C9004843F2E7F021C900484368
S1131440EEE7A02109014843EAE7B72189004843B0
S1131450E6E7B721C9004843E2E723494843DFE709
S113146022494843DCE7DBE71F2521480178C9B25C
S11314702940491C174889B2FFF7A7F921780D4084
S11314801835ADB26843CBE711780140402913D138
S113149011480078C00702D480200002C0E701216F
S11314A014480078C0B240084007400F81401248F9
S11314B089B2FFF78AF9B3E711780840802801D18F
S11314C00448ADE7B4E70000008104400040064052
S11314D00540064000127A000140064003400640E1
S11314E04480044054E0FF1F95080000710B000085
S11314F0044006400840064000093D0030B4012283
S11315000EE00368C31844680830144202D04D4604
S11315102C19641E1D6825601B1D241D091FF9D18B
S11315200168001D0029ECD130BC704710B5074993
S113153079441831064C7C44163404E0081D0A68CA
S1131540891888470100A142F8D110BD2C00000081
S11315503C00000072B60448044901600448804716
S113156062B604480047000008ED00E000000000F7
S113157079130000F915000085FFFFFF6C000000DF
S11315806CECFFFF00E0FF1F0000000080B5FFF7D8
S113159016F8FFF726F8FFF760F8FFF76AF8FFF789
S11315A07FF801210020FFF78FFEFEE700F00DF821
S11315B0002801D0FFF7BAFF00BF00BF002000BF22
S11315C000BFFFF7E3FF00F002F80120704780B589
S11315D000F002F801BD00000746384600F002F8AA
S11315E0FBE7000080B500BF00BF024A11001820CD
S11315F0ABBEFBE7260002000548014603B468467B
S113160080F3098800BF00BF00BF00BFFFF7CEFF13
S1131610A5EDF5FE004800476D16000000480047A0
S11316206D160000004800476D1600000048004792
S11316306D160000004800476D1600000048004782
S11316406D160000004800476D1600000048004772
S11316506D160000004800476D1600000048004762
S11316606D160000004800476D1600000048004752
S11316706D160000020300000203000001000000D8
S10716800100000061
S90315F9EE
