S01100004669726D77617265322E73726563A4
S113000070E8FF1F41230000DF00000037010000FB
S113001000000000000000000000000000000000DC
S11300200000000000000000000000004F0100007C
S1130030000000000000000085130000B71300005A
S1130040F5230000FD230000052400000D2400001A
S11300504D2400004D2400004D2400004D240000D8
S1130060152400001D240000252400002D24000078
S1130070D11C0000352400003D2400006D1B00004D
S11300804D2400004D2400004D2400004D240000A8
S11300904D2400004D240000892000004524000068
S11300A04D2400004D2400004D2400004D24000088
S11300B04D2400004D2400004D2400004D24000078
S11300C00268531C0360117070470000C9B20278C3
S11300D08A4203D0401C002AF9D100207047FEE771
S11300E080B5002801D100BF07A006490B68002B8A
S11300F003D022220021984701E001F047FB22208F
S113010002BD000068E0FF1F636F6E737472616963
S11301106E742068616E646C65723A20626164205A
S11301206D65737361676500431C0178401C094267
S1130130FBD1C01A7047FEE7C9B2521E05D303783B
S1130140401C8B42F9D1401E704700207047FEE7E7
S113015070B4103A03D378C9103A78C0FBD253076D
S113016001D318C918C001D508C908C0D20704D3DF
S11301700B880380891C801C002A01D50B7803702E
S113018070BC70478B0701D18307E1D0124205D0C0
S11301900B78491C0370401C521EF9D1704710B5EE
S11301A0144600F002F8226010BD4A0053155B1C8F
S11301B008D0520D06D003231B02FE3AD21A1305AF
S11301C0C91A7047002270470000000000000000B8
S11301D0000000000000000000000000000000001B
S11301E0000000000000000000000000000000000B
S11301F000000000E80300000100000035180000C2
S11302000000000434000000000001009518000004
S113021000000000030100004B1800000000400132
S113022000000000000000000000000000000000CA
S10B02300000000000000000C2
S1130400FFFFFFFFFFFFFFFFFFFFFFFFFEFFFFFFF9
S11304100100202008437047FDB5B2B03A9804911A
S113042002A93B22885400200D9028A8401C279044
S11304300DE00498329A90470490002801D100F00E
S1130440F8FD0D98401C0D903398401C3390339860
S11304500178002910D02529EBD1002007900890BD
S113046009900A900B900C90002102240120139013
S113047008201290339D05E00D9800F0DCFD080083
S1130480139901436D1C28782028F8D023280BD019
S11304902B2804D02D2804D0302808D00AE021438A
S11304A0F0E708000421ECE708000821E9E7080068
S11304B01021E6E72A280FD1349802681068121D2B
S11304C0349B1A600F90002804D542420F92080012
S11304D0042101436D1C12E000200F90614A09E0E1
S11304E00F9B934205DA9E00F3185B00181830380E
S11304F00F906D1C28780300303B0A2BF0D328782A
S11305002E2803D00020C0430E9027E06D1C2878CD
S11305102A2808D1349800680268001D349B1860AA
S11305200E926D1C1AE02D2802D12D226D1C00E0C4
S1130530002200200E900CE0002A09D10E9B494EA7
S1130540B34205DA9E00F3185B00181830380E9099
S11305506D1C28780300303B0A2BEDD302A80187D9
S11305602E7831003D487844FF300D38FFF7AEFD5A
S1130570002801D06D1C00E0002602A83A21465450
S1130580405C682804D1287868280BD1622005E0F3
S11305906C2807D128786C2804D1712002A93A224A
S11305A088546D1C18A80690287869460870681C41
S11305B0339068460578280025382DD02038022845
S11305C000D8C0E1133801D100F05DFC0B3801D133
S11305D000F0F6FC401E01D100F0A3FC401E0228EE
S11305E000D8B0E1001F01D100F09BFC401F00D1F6
S11305F007E1401E01D100F046FC401E00D1F0E0AE
S1130600C01E0ED0801E01D100F03DFCC01E01D1E1
S113061000F039FC00F0DFFC13980790252018A99E
S11306207AE1349800680468001D349908600594E0
S1130630002C00D0C1E002A83B21405C002800D17E
S1130640B5E00024E443064878441430FFF748FD3D
S1130650201A01D000F0EDFC00F0CAFC201C0000C0
S1130660541C0000CBCCCC0C01236A4602A9280000
S113067000F09CFD002801D000F0DBFC641EF3D1E7
S11306803295079D18AC002D0FD0329E2178049826
S1130690B0470490002801D100F0CBFC0D98401C19
S11306A00D90641C6D1EF1D132963020694608709D
S11306B00A9C002C0DDD329D01236A4602A9280004
S11306C000F074FD002801D000F0B3FC641EF3D1E7
S11306D03295059C089D002D0FD0329E21780498F8
S11306E0B0470490002801D100F0A3FC0D98401CF1
S11306F00D90641C6D1EF1D13296302769460F703F
S11307000B9C002C0DDD329D01236A4602A92800B2
S113071000F04CFD002801D000F08BFC641EF3D1E6
S11307203295059808994418099D002D0FD0329EE2
S113073021780498B0470490002801D100F079FC96
S11307400D98401C0D90641C6D1EF1D132966846C4
S113075007700C9C002C0DDD329D01236A4602A912
S1130760280000F023FD002801D000F062FC641E84
S1130770F3D1329502A83821405C400700D466E6E4
S11307802020694608700198002800DC5FE6019C7F
S1130790329D01236A4602A9280000F007FD0028C3
S11307A001D000F046FC641EF3D132954FE61B489D
S11307B078446830059000F01BFC0E9D002D03D595
S11307C02000FFF7B1FC09E02A0000212000FFF718
S11307D0B3FC002801D0001B00E02800089000F0C2
S11307E007FC349800680268001D349908600020F2
S11307F0C0430021104002AA03C218A80590782122
S1130800DAE302A83B21415C002909D00024E44337
S113081049487844FF30233018E700BFB41A000079
S11308203A21405C622868D0682819D06A2844D0EC
S11308306C2806D071284ED0742830D07A2820D065
S11308406CE0349800680168001D349A1060002937
S113085076D10024E44339487844FF301F38F5E664
S1130860349800680168001D349A1060002905D18D
S11308700024E44331487844C230E7E60D98088008
S1130880B6E3349800680168001D349A10600029AA
S113089056D10024E44329487844A030D6E634985D
S11308A000680168001D349A1060002948D10024B2
S11308B0E443224878448430C8E6349800680268E7
S11308C0001D34990860002A13D10024E4431B4816
S11308D078446830BAE6349800680268001D349998
S11308E00860002A05D10024E443144878444C30BD
S11308F0ACE60D98C11703C27AE334980068016826
S1130900001D349A1060002905D10024E4430B48EB
S1130910784428309AE60D98087069E334980068A2
S11309200168001D349A1060002909D10024E443B1
S113093002487844801D89E64C19000060190000C3
S11309400D98086054E334980068C21D0720824360
S11309503498026003CA349B1A6002AA03C2C80F07
S113096002D007982D210AE002A8008F204202D06D
S113097007982B2103E0C00705D50798202118AA62
S11309801154401C079018A807994018149005901A
S113099028AC02A803C816AA03C20E98002801D5E1
S11309A0062007E007D16846007820210143672923
S11309B001D113980E9002A803C80F0006187F41B6
S11309C07E15FF1793A20CCA9F4213D1964211D1F0
S11309D00903020D11430003002901D1002809D0A5
S11309E003200890613D1A2D1BD35A497944FF31E5
S11309F0653111E002A803C8080041004915994275
S1130A0014D1000312D103200890613D1A2D20D384
S1130A1051497944FF31433103221498FFF7B2FB63
S1130A20E6E24E497944FF313531F5E701AA02A8DF
S1130A3003C8FFF7B4FB02AA03C202A803C877A243
S1130A400CCA02400B4009D1002A07D10026002518
S1130A50C9E043497944FF310931DDE716A830C8BC
S1130A606D006D0801986F4948436F4900F0CFFB52
S1130A70019007200199401A002805DD020020009A
S1130A80290000F06CFB0AE042420020674900F0B4
S1130A9066FB02000B002000290000F012FC20225B
S1130AA06B461B781A436B465A706A465278662A1C
S1130AB002D1019A0A3200E006220E9B9A18142AE7
S1130AC000DD142228AB30241C705C1C02E016A844
S1130AD003C8149A002A45DD16AB03C3149216A862
S1130AE003C800F051FC1590064608340425300074
S1130AF00A2100F08FFB0F0030000A2100F08AFB6E
S1130B0006003037601E077030000A2100F082FBB7
S1130B100F0030000A2100F07DFB0600A41E3037D0
S1130B2027706D1EE3D108341498083814900028F7
S1130B30CDDD159800F040FC02000B0016A803C898
S1130B4000F0ADFC00223A4B00F020FD16AA03C2CF
S1130B50C5E700BF8417000088170000781700005D
S1130B607C1700002798201A28A94C1C04E0401E7A
S1130B700199491E0191641C21783029F7D06946F6
S1130B804978662902D10199491C06E069464978E9
S1130B90652901D1139900E000210E9A5618B0423C
S1130BA000DA461E002E1DD4864204DAA05D3428E5
S1130BB001DD392200E030223100601E431801E0DB
S1130BC0761E5B1E491E1D789542F9D0392A02D142
S1130BD0625C521C6254002904D50400761C0198FE
S1130BE0401C0190019D68460078694648700E9F3C
S1130BF030B2002803DC139E054C7C441234684652
S1130C00417820200843662814D16D1C2AE000BFD7
S1130C10D4160000FFFFFFFFFFFFFFFFFFFFFFFFF2
S1130C20FFFFFF7F97750000A08601000000F03FE2
S1130C3084D7974167285CD128B20321C9438842ED
S1130C4041DBB8423FDA6D1C02A8008F1299C0B292
S1130C50084203D130B2B84200DC070028B23F1A80
S1130C6000D5002728B2002800DDA8E00898411C20
S1130C7008913021059A1154002F05DC02A8008F39
S1130C801299C0B2084205D00898411C08912E213F
S1130C90059A115428B241428F4200DA7D422DB2A6
S1130CA068420B907D1930B2854200DA2E0036B2CC
S1130CB00996320021000598089BC018FFF762FAD4
S1130CC0A81B0C90C7E030B2B84206DA02A9098F1B
S1130CD0129AC9B2114200D107007F1E00D5002725
S1130CE068464078672801D1652000E045206946C0
S1130CF048700898411C08912178059A1154611C88
S1130D00002F05DC02A8008F129AC0B2104218D03E
S1130D100898421C08922E22059B1A54002F10DDBD
S1130D20761E30B2874200DA3E0032B20598089B44
S1130D30C018FFF727FA36B2089880190890B81B34
S1130D400B9005980899401869464978017029B2B2
S1130D50002903D42B214170861C03E02D2242700C
S1130D60861C4D42002412A928000D0005E00A212A
S1130D7000F04DFA2970641C6D1C00B20028F6DCEA
S1130D80012C08DC6846407820210143652902D102
S1130D9030203070761C002C09D130203070761C45
S1130DA007E0641E12A8005D30303070761C002C01
S1130DB0F7DC059808994018301A09904BE030B2D6
S1130DC029B288421DDA32B221000598089BC01866
S1130DD0FFF7D8F936B20898801908902DB2A91BEC
S1130DE00B91002F05DC02A9098F129AC9B2114296
S1130DF005D02E21059A11540998401C09900C978E
S1130E0029E02AB221000598089BC018FFF7BAF917
S1130E1028B2089909180891751B002F05DC02AA4D
S1130E20128F129BD2B21A4204D04A1C08922E226C
S1130E30059B5A5429B28F4200DA3D002AB2211888
S1130E400598089BC018FFF79DF92DB20898401922
S1130E500890781B0B9002A83821405C14210140B3
S1130E60102900D0C4E00798089940180B9940183D
S1130E70099940180C9940180F99884200DBB7E093
S1130E80081A0A90B4E002AA3A20105C622808D03A
S1130E9068280ED06A2814D06C281DD0712810D070
S1130EA01AE0349801680868091D349B1960C0B2BF
S1130EB018E0349801680868091D349B196080B2F1
S1130EC010E034980068C31D0720834334980360FE
S1130ED003CB349C236006E0349801680868091D3C
S1130EE0349B1960002102AB03C3108F1299C0B266
S1130EF008425BD002A803C8002901D1002855D0BC
S1130F00684600782021014378294FD1079818A911
S1130F1030220A54401C421C07926A4612780A5432
S1130F2044E002AA3A20105C622808D068280ED057
S1130F306A2814D06C281DD0712810D01AE0349877
S1130F4001680868091D349B196040B218E03498A0
S1130F5001680868091D349B196000B210E03498D8
S1130F600068C31D072083433498036003CB349D7A
S1130F702B6006E0349801680868091D349B1960E9
S1130F80C11702AB03C3002902DA07982D2109E037
S1130F90108F204202D007982B2103E0C00705D50B
S1130FA00798202118AA1154401C079018A80799E3
S1130FB0401805906846017802A800F03EF817E052
S1130FC013980790349800680168001D349A1060E3
S1130FD018A801700CE013980790252018A9087030
S1130FE068460078002803D0079468460078487063
S1130FF00F980799401A0A99401A0899401A0B99B0
S1131000401A0999401A0C99401A019002A83821F3
S1131010405C400701D5FFF734FB20206946087087
S11310200198002801DCFFF72CFB019C329DFFF79F
S11310301BFB0020C04335B0F0BDF2B586B0040000
S113104025696F2901D1082707E00846FFF7E0F971
S1131050782801D00A2700E010273C2603CC083C5E
S113106004AA03C26A46127E642A03D06A46127E28
S1131070692A09D1002907DA04A803C80022002339
S1131080121A8B4104A80CC004A803C800290DD16E
S113109000280BD1206B002808D1082F3DD138201F
S11310A0205C000739D53B26302035E002940095BA
S11310B004A830C8761E0196200029003A00FB17C8
S11310C000F026FB3032D0B23A280DDA009882556F
S11310D0200029003A00FB1700F01AFB04000D0061
S11310E007D1002C05D10AE06846007E8218AF3291
S11310F0ECE70298C068009989198842DAD3029C07
S1131100009D082F09D13820205C000705D5A85D73
S1131110302802D0761E3020A8553C20801BA061C8
S1131120A919E160216B884206DA081A2062208F2F
S11311301C490140218710E000290ED53821615C4B
S113114014220A40102A08D1616B6269891A226A42
S1131150891A081A002800DD206207B0F0BDF8B52E
S11311600026114F04000D00009214E0C00707D5BB
S113117032003B002000290000F008FA04000D00B2
S11311800098401000903000390032003B0000F01D
S1131190FDF906000F0000980028E7D1200029007F
S11311A0F4BD0000EFFF000000002440F8B5002467
S11311B0002B11D007000E0014001D002178B06828
S11311C0B847B060002809D0F06A401CF0620020E3
S11311D0641C6D1EF2D104002000F2BD0020C04347
S11311E0F9E7F446002804D4494200F013F84042D9
S11311F060474042002905D45FD000F00BF840421C
S113120049426047494200F005F8494260470346B5
S11312100B43E6D40022030A8B420BD203098B4210
S113122019D243088B422ED2411A00D201465241B0
S113123010467047FF2209023FD012068B4205D3A5
S1131240121209028B4201D31212090203098B42C2
S113125019D300E0090AC3098B4201D3CB01C01A98
S1131260524183098B4201D38B01C01A5241430975
S11312708B4201D34B01C01A524103098B4201D363
S11312800B01C01A5241C3088B4201D3CB00C01AD0
S1131290524183088B4201D38B00C01A5241430848
S11312A08B4201D34B00C01A5241884200D3401AEA
S11312B05241CFD201461046704708B500F06CFA8F
S11312C008BDF0B40E005E400125ED072E40B44683
S11312D0AE0ADF184C18F4423BD2F74241D2640DF7
S11312E043D07F0D38D0E41BC902DB0229432B43D2
S11312F0CF0ADB0A0600B61A9F4104D2641EB6194F
S11313007F41B6185F416812800D2418001884428A
S113131022DCE80C0021B6197F41B61A9F4102D2A3
S1131320B6185F413F1C40414941F4D3241C21DDE0
S11313302405B6197F41B61A9F4105D33743C60722
S113134037430026012F7041614166463143F0BCAA
S11313507047FCD1F74205D20020C1434905490832
S1131360F3E704D00020C143F1E77F0DFAD0002059
S11313706146ECE72442FAD1401C61410F03F6D3E5
S11313800020E2E7FEE700004A1812D2400DC9022D
S113139008430121C9070843520D40210901521A8B
S11313A0521C06D452421F3201D4D0407047C01799
S11313B0704700207047FEE7010042221201D21E4E
S11313C0004207D002D4521E0018FCD5C10A4005C1
S11313D01205891870470000F0B40125ED070F00CD
S11313E05F404FD48B4200D1824205D9844610001D
S11313F062468C4619006346DF184C18640D7F0D55
S11314003AD0661C760537D0E61B352E34DCDB0279
S11314102B43DB0A0C0DC9022943C912202E0DDB14
S11314201700203E06D01F00F741F3405F4000261E
S1131430012A7741C01871410DD217E01700F74116
S1131440F2405740F3415A40B340F3405A4000261B
S1131450801859410AD3A21C52050FD0C207012F8C
S1131460724117004008CB0718434908641C24053F
S11314704208AF4170416141F0BC7047641C2105D2
S11314800020F9E76B4010E06B40ABE7F742F3D183
S1131490E943F1E72442EFD100200021ECE7F0B466
S11314A00125ED070F005F40EED40C00871A9C4124
S11314B005D2C01BA141D219634169406B40AE0AF9
S11314C0DF184C18F442E1D2640D7F0DE2D0E61B24
S11314D0362ED1DCDB022B43DB0AA4460C0DC902F9
S11314E02943C90A012E28DC04D1D6075208DF0794
S11314F03A435B08EF0A76429041994114D039424D
S11315003BD1B61940414941761C394204D1761C7D
S1131510001849413942FAD0B9436746B74208D95D
S1131520A41B24052143A7E70042EAD13642E8D1AF
S1131530A2E7E40AE10700209EE7202E0BDD203E0F
S11315401F00F340F7415F40012A002257417E42C9
S1131550984191410BE01700F741F2405740F341A5
S11315605A40B340F3405A407E42904199410A03A5
S113157003D2641EB619404149410027641E240564
S11315804208AE4178416141F0BC7047F0B50E00AD
S11315905E400125ED072E40B446AE0ADF184C1814
S11315A0F44208D2F7420ED2640D01D07F0D12D15D
S11315B000206146F0BD05D1F74201D87F0D05D169
S11315C00020C143F0BDFBD1640DF9D00020C1431C
S11315D0490549088FE0E419C902DB0229432B437A
S11315E0DB0A460DC00231438E4630B487B295B251
S11315F07D432E0CADB2140C7C43A419260C240498
S113160025439CB27C43A419190C7943270CC919AE
S1131610A4B20F043C43090C000C97B247432E0CB0
S1131620BE193543ADB2170C4743360CBF19A6B2E9
S1131630BF193E043543240C3E0C36199FB2474370
S1131640BF19BCB23E0C89191F0C47437F183E04D6
S11316503443390C704680B297B247432E0CBE19FE
S11316603543ADB2170C4743360CBF19A6B2BF19A8
S11316703E043543240C3E0C36199FB24743BF1930
S1131680BCB23E0C89191F0C47437F183E043443F7
S1131690390C77463F0C90B278432E0C801906041F
S11316A0ADB22E43050CA0B22D18120C7A4350197A
S11316B0020C80B2240CA4189AB27A4312191404AE
S11316C02043120C89181B0C7B43C91830BCEF0A49
S11316D0394203D1B61940414941641E6F12BF0D0E
S11316E0E41B0BDBFF19BC4211DA24050027420876
S11316F0AE417841614166463143F0BD641C05D179
S1131700401C6141CF0201D34908F4E750E75DE78B
S113171012422DD0994231D970B500251B4209D00F
S11317200C00002112E01100FFF774FD0A000021F3
S1131730002370BD0942F6D00024012649186441F3
S1131740944200D3A41A7641F8D33100012601E073
S1131750764109D2001864416D41A41A9D41F7D223
S1131760A4185D41B619F5D3300022002B0070BDDA
S11317701B42CFD108B500F011F808BD01D1904249
S1131780CAD202000B0000210020704780B501205E
S113179000F006F801BD000070470000704700002B
S11317A080B500BF00BF024A11001820ABBEFBE7A2
S11317B0260002000121C006C00E8140B24801602B
S11317C07047F0B5020052B2002A1CD518230F2529
S11317D0744C020052B22A40083A92089200060061
S11317E076B23540083DAD08AD006559FF26C70007
S11317F01F40BE40B5438901C9B2C00003409940AF
S11318002943A15015E0A14A1823040064B2A40896
S1131810A4001459FF25C6001E40B540AC438901FD
S1131820C9B2C5002B409940214340B280088000D2
S11318301150F0BD80B5C0B2002805D100F074F895
S11318401A21002000F081F901BD38B500F066F8D6
S1131850734C002000F08FF92080724D208800F036
S113186069F828602868704C894922789200885069
S11318702078401C0A21FFF7CAFC217031BD10B545
S11318800C0000F08DF902000B008249200000F0EA
S1131890A1F910BD1CB56548654909780170007847
S11318A0552816D1002410E0062269467848230002
S11318B0DBB29B00C058FFF7E2FF20206946487165
S11318C00621684600F011FA641C2000C0B20A2800
S11318D0EADB13BD80B557480168802292010A43B0
S11318E00260554A1D21554800F032FA01221D219B
S11318F0694800F0A1FA01BD80B54E480168802214
S113190052010A4302604E4A05214E4800F020FA73
S113191001220521614800F08FFA01BD80B51D2127
S11319205D4800F0A5FA01BD80B505215B4800F0D3
S11319309FFA01BD80B580B200F0A6FA424900F0DA
S1131940B3FA00F02DF941A20CCAFFF71FFE41A221
S11319500CCAFFF741FD41A20CCAFFF7B2FC02001A
S11319600B0000204E49FFF79AFD00F0EFFA02BD8C
S113197080B54C4800F01CFB1620FFF71BFF02212A
S11319801620FFF71EFF01BD80B5474800F090F810
S11319900F20FFF70FFF01210F20FFF712FF01BDFA
S11319A0000000001CED00E010B52E480178022272
S11319B00A4302702C48017801220A4302702B4822
S11319C001682B4A0A4002600168C02212050A43DA
S11319D0026018480168802292000A430260254888
S11319E001688022D2000A430260234C234A012169
S11319F0200000F0ADF9224A0221200000F0A8F9ED
S1131A00204800F007F92948017804220A430270AB
S1131A100C20FFF7CFFE03210C20FFF7D2FE10BDF0
S1131A206CE0FF1F5CE0FF1F6FE0FF1F6EE0FF1F15
S1131A3007A00640388004406024000000D0044021
S1131A405C24000000C0044000FF7F4766666666B1
S1131A5066660A40B6F3FDD478E9E6BF79E9263133
S1131A6008AC5C3F0040064001400640048004404E
S1131A70FFFFFFF33480044000900440542400002E
S1131A805824000038E0FF1F00E100E000E400E01B
S1131A9000E0FF1FEC23000000F10F40C0F00F40F6
S1131AA00000394028E0FF1F48E0FF1F03A0064064
S1131AB030B534490A6880231B0513430B6032494F
S1131AC00A6803781B011024234013430B602F4939
S1131AD00A6803239A430A6003220B68447814407B
S1131AE01C430C602A4B1C680325AC431C601C6817
S1131AF085782A4022431A60264A03789B00D358EB
S1131B00C478640120252C401C4303789B00D450E6
S1131B100B680C24A3430B600B680479A4000C2508
S1131B2025401D430D6001788900515843799B017C
S1131B30402423400B430178890053504179012903
S1131B4002D180681449086030BD10B4114A030002
S1131B50DBB29B00D3581F24A343C9B2C906C90EE4
S1131B601943C0B28000115010BC704780B50A48B8
S1131B700068804701BD0949C0B28000085880B29E
S1131B80704700003C8004400CB0034008B00340A0
S1131B9020B0034000B0034058E0FF1F10B00340E2
S1131BA0012212060118CA420AD28A420DD83822EA
S1131BB0120609098918C20FD2071143400770475A
S1131BC000D049080909014301E0C10FC9070020F9
S1131BD0704700000CB418B583B004000A0006A8CE
S1131BE0029001940020009002AB01A908487844B7
S1131BF01E30FEF711FC0021019A1170002801D457
S1131C000198001B04B0019910BC03B0084700BF41
S1131C10B1E4FFFFF0B545490A7803781B011024AD
S1131C20234013430B700A78FD2313400B700A788A
S1131C30FE2313400B704278022A02D04278032A12
S1131C4003D10A78022313430B704278032A03D189
S1131C500A78012313430B702021354A13788478C2
S1131C6064010C401C4314701F23E024314D2E7872
S1131C702640C7787F1E1F4037432F7015782C40AD
S1131C8014702D4C25780025257015784668360A81
S1131C9033402B4313702278436813432370274A3D
S1131CA01378047AE4011C43437A857A1D436B015B
S1131CB0194021431170C168214A1160C078001F86
S1131CC0042804D21F48017802220A430270F0BD9E
S1131CD080B51D480178890603D50178DF220A40C2
S1131CE0027017480068804701BD30B5134A137865
S1131CF008241C431470002309E0134C24782406A0
S1131D00FBD51C00E4B2045D104D2C705B1C1C0060
S1131D100D00E4B2EDB2AC42EFD30B4800784006BC
S1131D20FBD51078F7210140117030BD02A00640A8
S1131D3000A006400AA0064001A0064003A00640F9
S1131D4064E0FF1F0BA0064004A0064007A0064065
S1131D5030B50B00DBB2202B68DA5378042B65DA3C
S1131D601378082B62DA93780D2B5FDA0B00DBB261
S1131D709B00C3582E4C1C400B00DBB29B00C4508C
S1131D800B00DBB29B00C35814782402E025ED005D
S1131D9025401D430B00DBB29B00C5500B00DBB29A
S1131DA09B00C3580224A3430C00E4B2A4000351D3
S1131DB00B00DBB29B00C3580124A3430C00E4B224
S1131DC0A40003515378022B02D05378032B09D17A
S1131DD00B00DBB29B00C35802241C430B00DBB294
S1131DE09B00C4505378032B09D10B00DBB29B003A
S1131DF0C35801241C430B00DBB29B00C4500B00EE
S1131E00DBB29B00C3580B4C1C400B00DBB29B00A5
S1131E10C4500B00DBB29B00C35892781204F02428
S1131E20240314401C43C9B28900445030BD00004F
S1131E30FFF8FFFFFFFFF0FF00B50B00DBB2202B24
S1131E4015DA1300DBB2022B11DA1300DBB2012B1B
S1131E5005D1426901238B401343436107E0D2B2A9
S1131E60002A04D1426901238B409A43426100BD98
S1131E7000B50A00D2B2202A04DAC26801238B40DA
S1131E801343C36000BD00009D2102000AD002D4A8
S1131E90491E9218FCD5C905100A1206524100D3F6
S1131EA0012A48417047000030B405004D4001222A
S1131EB0D20715404B180418240E25D01B0E2CD025
S1131EC0FF2C31D0FF2B34D0E41A00020902104356
S1131ED0114343084808D10D1B1A02D2641EDB18B3
S1131EE01B18DB18834200D31B1A4941F9D37F34F2
S1131EF023DDFF2C05DAE40548086041284330BCA3
S1131F007047FF20C005F9E728001B0E03D0FF2B04
S1131F10F5D14902F3D0D043F1E7FF2C01D14002BF
S1131F20F9D1FF20C005E9E74002F4D1FF2BF8D135
S1131F30F1E728004902E2D0EDE70B020020244239
S1131F40DCD15B129B1CD9D9D805D7E701225205F5
S1131F504B18DA4201D9581570475B0D0722D2019C
S1131F609B1A10D9FF2B1DD2DB050122D2070A4090
S1131F7013430903020D1143490AC200524100D917
S1131F80491CC81870470AD1800A0A030243521236
S1131F90921C04D9D3070B40D00518437047C80FCF
S1131FA0C0077047C80F0002FF30C005704700002B
S1131FB070B50400002048480168802212040A43D6
S1131FC002600225ED4345480168294001606178BB
S1131FD0002904D1016801229143016003E00168F2
S1131FE001220A43026000F08BF866683C480068EE
S1131FF0FA218900FFF70EF93A490968090C4907E3
S1132000490F491CC9B2FFF705F94643761E364805
S1132010217809014650217A01290DD1217809013D
S113202041182278120180188068022202438A60D3
S1132030E0682E49086008E02178090141182278F7
S113204012018018806805408D6070BD00B5C9B26A
S113205000290CD124490200D2B212018A189268D4
S113206001239A43C0B20001081882600BE01E49A4
S11320700200D2B212018A18926801231343C0B23B
S113208000010818836000BD10B5012418480068D9
S11320902040002806D00020144909688847002001
S11320A000F00DF8134800680440002C06D001200D
S11320B00E4909688847012000F001F810BD0A495B
S11320C00200D2B212018A18D26801231343C0B2AB
S11320D000010818C36070473C800440007003404E
S11320E054E0FF1F448004400071034060E0FF1F80
S11320F00C7103401C710340002053490860704771
S113210030B5C020514A1178030019427CD1504C9B
S11321102078400668D41078400726D44D484E49AC
S1132120097830230B40002B14D0117838230B404E
S1132130302B04D0382B05D1C021C90011E0A021D7
S1132140C9000EE020211278D2B2D2085207520FF1
S1132150914006E001211278D2B2D2085207520F00
S1132160914089B2FFF756F801E0802000023B4914
S11321700978C9B2E0220A40002A0ED0202A18D0D9
S1132180402A1AD0602A1CD0802A1ED0A02A20D02F
S1132190C02A22D0E02A23D025E0A0218900484388
S11321A02F490968090F491CFFF734F82D490860C5
S11321B030BDA021C9004843F2E7F021C9004843DB
S11321C0EEE7A02109014843EAE7B7218900484323
S11321D0E6E7B721C9004843E2E723494843DFE77C
S11321E022494843DCE7DBE71F2521480178C9B2CF
S11321F02940491C174889B2FFF70CF821780D4093
S11322001835ADB26843CBE711780140402913D1AA
S113221011480078C00702D480200002C0E70121E1
S113222014480078C0B240084007400F814012486B
S113223089B2FEF7EFFFB3E711780840802801D197
S11322400448ADE7B4E700000081044000400640C4
S11322500540064000127A00014006400340064053
S11322604480044054E0FF1F95080000710B0000F7
S1132270044006400840064000093D00686A6C744A
S11322807A4C00007072696E74665F733A20256E32
S113229020646973616C6C6F776564007072696E39
S11322A074663A2062616420256E20617267756DE0
S11322B0656E74007072696E74665F733A20626151
S11322C06420257320617267756D656E740000006B
S11322D0000000006E616E004E414E00696E6600A3
S11322E0494E4600300030B401220EE00368C318A2
S11322F044680830144202D04D462C19641E1D68EF
S113230025601B1D241D091FF9D10168001D00292A
S1132310ECD130BC7047000010B50749794418313E
S1132320064C7C44163404E0081D0A688918884762
S11323300100A142F8D110BD2C0000003C000000B7
S113234072B60448044901600448804762B60448F0
S11323500047000008ED00E000000000F920000044
S1132360D123000083FFFFFF700000005CDEFFFF4D
S113237000E0FF1F0000000080B5FFF7ABFAFFF795
S1132380BBFAFFF7F5FAFFF7FFFAFFF70DFB0121A0
S11323900020FFF75BFEFEE700F00DF8002801D0F7
S11323A0FFF7BAFF00BF00BF002000BF00BFFFF768
S11323B0E3FF00F002F80120704780B500F002F856
S11323C001BD000007463846FFF7EAF9FBE70000C5
S11323D00548014603B4684680F3098800BF00BF7E
S11323E000BF00BFFFF7D8FFA5EDF5FE252E32662E
S11323F000000000004800474D240000004800474A
S11324004D240000004800474D24000000480047C8
S11324104D240000004800474D24000000480047B8
S11324204D240000004800474D24000000480047A8
S11324304D240000004800474D2400000048004798
S11324404D240000004800474D2400000048004788
S11324504D240000020300000203000001000000FC
S10724600100000073
S90323D108
