S01100004669726D77617265322E73726563A4
S113000030E8FF1F2D130000830E00009B1D00002D
S113001000000000000000000000000000000000DC
S1130020000000000000000000000000CF1F0000DE
S11300300000000000000000032000006B2000000E
S1130040A9200000B1200000B9200000C120000058
S113005009210000092100000921000009210000F4
S1130060C9200000D1200000D9200000E1200000B8
S1130070E9200000F1200000F9200000E91A000046
S113008009210000092100000921000009210000C4
S11300900921000009210000F51B000001210000D6
S11300A009210000092100000921000009210000A4
S11300B00921000009210000092100000921000094
S11300C090420ED1A4460C001C430128644107D081
S11300D0994205D14C006415641C644000D30C03A0
S11300E06446704710B5144600F002F8226010BD53
S11300F04A0053155B1C08D0520D06D003231B0283
S1130100FE3AD21A1305C91A70470022704730B458
S1130110012464054D00EC420BD85D00EC4208D884
S11301200C001C4364000443144304D2994200D1DC
S1130130904230BC7047FCD08B42FAD18242F8E73F
S1130140124217D40023DB435B0D9C464B005B0D2E
S113015006D0634504D09B18634502D21205891862
S113016070476246090D11430905002000B500BF20
S113017000BF00BD52424B005B0DF1D05B1C5B0520
S1130180EED25B0D934102D91205891A70470BD147
S11301900B031B13C90FC907821C002043411343DF
S11301A0E4D912051143E1E7C90FC9070020DDE7CF
S11301B000000000F4010000010000004D180000E0
S11301C0000000000301000063180000000040016B
S11301D0000000000000000000000000000000001B
S1130400FFFFFFFFFFFFFFFFFFFFFFFFFEFFFFFFF9
S1130410F8B50CB48CB00CAA30CA78A20CCA22402D
S11304202B4002D1002A00D14FE302AA03C202A842
S11304300CC800206F49FFF743FE00D145E36E4925
S1130440FFF73EFE0BD10CA803C808004100491574
S11304500022D243914202D1000300D135E302A825
S113046003C86A4603C2684603C8001849414815D0
S1130470C9170022D243904200D1EDE16A460CCA6A
S11304805EA6C0CE16401F4002D1002E00D1E3E18B
S11304902B0022195B415A150023DB439A4200D1F9
S11304A0DAE1200029000B0002185B4104D1002A84
S11304B002D10CA803C818E0B44E5A0DB61A352E52
S11304C006DB002280231B060B4004A80CC00EE0B0
S11304D0202E03DD203EF140B14000E001D1002098
S11304E003E0002E01DDF040B04004AA03C26846D8
S11304F003C8C80F1CD0002D06DA0020802109068D
S1130500001BA94104000D0004A803C8002906DA51
S1130510002280231B06121A8B41100019008D4201
S113052001D1844204D000BF00BF34A003C8CEE28E
S11305306A4602A803C8FFF7D5FD04000D00C80FE2
S113054040D06D006D0804A803C802AA03C202A823
S11305500CC89018494101D1002817D0C74E480D46
S1130560361A352E05DB80210906194000220B00BE
S11305700CE0202E03DD203EF340B34000E001D127
S1130580002203E0002E01DDF240B24002A803C8BD
S1130590002905DA002680273F06361A8F4101E03C
S11305A006000F00002B06DA002080210906801ABD
S11305B0994102000B009F4203D1964201D10020D1
S11305C000E001200590009801281BD1200029009B
S11305D0B1A20CCAFFF79BFD14D20020019005497B
S11305E002AA03C2012220002900FFF7A9FD04008A
S11305F00D0024E00000F03F0000F0BFFFFFFFFF0C
S1130600FFFFFF7F0020A64922002B0000F074FAB0
S11306100022A04B00F032FB00F00AFC20380190CD
S113062000F040FC00229F4B00F066FA0022994B38
S113063000F024FB02AA03C20198400101902000AB
S1130640290002AA0CCA00F07CFB06000F0002A8D5
S113065003C822002B0000F011FB02000B00300045
S1130660390000F029FC06AA03C206A80CC806A893
S113067003C800F041FA06000F002000290002AA76
S11306800CCA00F05EFB08AA03C27EA003C83200B5
S11306903B0000F031FA7DA20CCA00F0EFFA320000
S11306A03B0000F029FAC6A20CCA00F0E7FA3200B7
S11306B03B0000F021FAC4A20CCA00F0DFFA3200B9
S11306C03B0000F019FAC2A20CCA00F0D7FA3200BB
S11306D03B0000F011FAC0A20CCA00F0CFFA3200BD
S11306E03B0000F009FABEA20CCA00F0C7FA3200BF
S11306F03B0000F001FA08AA0CCA00F022FB040037
S11307000D000020AB4902AA0CCA00F01AFB01221A
S1130710FFF716FD22002B0000F0B0FA06AA0CCA5F
S113072000F0EAF902000B0055487844FF305330DA
S11307300199461808A803C800F0A0FA06AA03C243
S1130740009800F0AFFB0CCE083E00F097FA0400CE
S11307500D0006A80CC892A003C800F0CDF9220031
S11307602B0000F08BFA0CAA0CCA00F0C5F9002289
S11307708D4BFFF7CCFC65D301228C4B00F0FDFBC5
S11307805DD9CA0F04D00022894B02E03304000073
S1130790404B00F073FA00F04BFB07000097002277
S11307A0844B039204930CA803C822002B0000F08E
S11307B0A3F904000D00380000F074FB02000B00E4
S11307C02000290000F0BDFA7BA20CCA00F094F9C5
S11307D00190029106A80CC80CA803C800F08CF97B
S11307E004000D003000083003C8320010320CCA77
S11307F000F044FA02000B000CA803C800F07CF9D6
S11308006DA20CCA00F078F922002B0000F036FA31
S1130810019A029B00F032FA039A049B00F0C6FB93
S1130820ADA20CCA02400B4001D1002A0AD04B00F1
S11308305B150024E443A34206D10A0304D100203B
S1130840AC4901E000200021059A002A00D13EE1D4
S11308508022120651403AE16A460CCAA0A6C0CED4
S1130860B94221D1B0421FD11B03100D034312031F
S1130870002B01D1002A17D002A827E0340400007D
S1130880D00A0000F7DE29BFD8F8C23FF4B3FECC8B
S11308901A99C33F0000E03FCD3B7F669EA0E63F30
S11308A0000050400000903F29002019494148159C
S11308B0C917B9420CD1B0420AD12B03260D3343D8
S11308C02203002B01D1002A02D00CA803C8FEE0A9
S11308D00126B84200D1A8E0200029000B0002182C
S11308E05B4104D1002A02D10CA803C817E07E4F53
S11308F05A0DBA1A352A05DB0B000020802109069F
S113090019400CE0202A03DD203AD140914000E058
S113091001D1002003E0002A01DDD040904004AA68
S113092003C220002900002907DA002280231B06C5
S1130930121A8B410AA80CC001E00AAA03C204A837
S113094003C808AA03C208A803C8002907DA0022BA
S113095080231B06121A8B4106A80CC001E006AACC
S113096003C20AA803C806AA0CCA994201D190423C
S113097000D0002608A803C80B0002185B4104D16C
S1130980002A02D104A803C83BE0584F5A0DBA1AF2
S1130990352A29DB0B00002080210906194030E0AC
S11309A0FE822B654715F73F0000E0C00000E040E1
S11309B00000E0BF0000F03FEF39FAFE422EE63FB0
S11309C062CB68D96F46C73FC6C912DAC471CC3F3F
S11309D04AE98A942449D23FF75F97999999D93F74
S11309E0BC5555555555E53F202A03DD203AD140E5
S11309F0914000E001D1002003E0002A01DDD04055
S1130A009040002E11D006AA0CCA002906DA00264E
S1130A1080273F06361A8F41300039008B4203D1BC
S1130A20824201D1002600E0012602A803C8080082
S1130A300022D24341004915914208D1000306D156
S1130A40684603C8C80F16D1EC0F3CD034E00CA89C
S1130A5003C8080041004915914215D1000313D180
S1130A606A4602A803C8FFF73DFBEC0F009818D1B3
S1130A70002814DC19E0EC0F03D1002E20D1002053
S1130A8021E0002E11D006E0002E11D10020EC0F41
S1130A9014D1002810D000208021090617E000207E
S1130AA011E0002801DC00200DE0002000210EE010
S1130AB0684603C8C80FEAE7002108E0002802D00E
S1130AC000200B4903E00B4901E0002001490FB06D
S1130AD0F0BD00BF0000F03FFFFFFFFFFFFFFF7FFF
S1130AE0FFFFFFFFFFFFFFFF33040000340400009B
S1130AF00000F0FF0000F07FF0B50E005E4001251D
S1130B00ED072E40B446AE0ADF184C18F44208D262
S1130B10F7420ED2640D01D07F0D12D10020614640
S1130B20F0BD05D1F74201D87F0D05D10020C143A6
S1130B30F0BDFBD1640DF9D00020C143490549083B
S1130B408FE0E419C902DB0229432B43DB0A460D7B
S1130B50C00231438E4630B487B295B27D432E0C29
S1130B60ADB2140C7C43A419260C240425439CB276
S1130B707C43A419190C7943270CC919A4B20F0496
S1130B803C43090C000C97B247432E0CBE19354365
S1130B90ADB2170C4743360CBF19A6B2BF193E04B9
S1130BA03543240C3E0C36199FB24743BF19BCB2DF
S1130BB03E0C89191F0C47437F183E043443390CFB
S1130BC0704680B297B247432E0CBE193543ADB27E
S1130BD0170C4743360CBF19A6B2BF193E04354360
S1130BE0240C3E0C36199FB24743BF19BCB23E0CCD
S1130BF089191F0C47437F183E043443390C774648
S1130C003F0C90B278432E0C80190604ADB22E43EB
S1130C10050CA0B22D18120C7A435019020C80B2A4
S1130C20240CA4189AB27A43121914042043120C07
S1130C3089181B0C7B43C91830BCEF0A394203D115
S1130C40B61940414941641E6F12BF0DE41B0BDB12
S1130C50FF19BC4211DA240500274208AE4178414D
S1130C60614166463143F0BD641C05D1401C6141BD
S1130C70CF0201D34908F4E750E75DE7F0B401255A
S1130C80ED070F005F404FD48B4200D1824205D95B
S1130C908446100062468C4619006346DF184C18DF
S1130CA0640D7F0D3AD0661C760537D0E61B352ED1
S1130CB034DCDB022B43DB0A0C0DC9022943C912C5
S1130CC0202E0DDB1700203E06D01F00F741F34015
S1130CD05F400026012A7741C01871410DD217E008
S1130CE01700F741F2405740F3415A40B340F340F4
S1130CF05A400026801859410AD3A21C52050FD02D
S1130D00C207012F724117004008CB071843490856
S1130D10641C24054208AF4170416141F0BC704736
S1130D20641C21050020F9E76B4010E06B40ABE741
S1130D30F742F3D1E943F1E72442EFD10020002147
S1130D40ECE7F0B40125ED070F005F40EED40C0092
S1130D50871A9C4105D2C01BA141D2196341694045
S1130D606B40AE0ADF184C18F442E1D2640D7F0DDB
S1130D70E2D0E61B362ED1DCDB022B43DB0AA44691
S1130D800C0DC9022943C90A012E28DC04D1D60757
S1130D905208DF073A435B08EF0A764290419941D3
S1130DA014D039423BD1B61940414941761C3942ED
S1130DB004D1761C001849413942FAD0B943674638
S1130DC0B74208D9A41B24052143A7E70042EAD16E
S1130DD03642E8D1A2E7E40AE10700209EE7202E8C
S1130DE00BDD203E1F00F340F7415F40012A002243
S1130DF057417E42984191410BE01700F741F24080
S1130E005740F3415A40B340F3405A407E42904128
S1130E1099410A0303D2641EB6194041494100278F
S1130E20641E24054208AE4178416141F0BC70471C
S1130E30F4464A1805D200F00FF801D5801740088F
S1130E40604700F009F80121C907884200D9080069
S1130E50404260474A1812D2400DC902084301219A
S1130E60C9070843520D40210901521A521C06D4E5
S1130E7052421F3201D4D0407047C017704700203F
S1130E807047FEE7010042221201D21E004207D041
S1130E9002D4521E0018FCD5C10A40051205891857
S1130EA0704700000100EED54042F446FFF7EBFF27
S1130EB00122D20711436047F0B40E005E400125C1
S1130EC0ED072E40B446AE0ADF184C18F4423BD26C
S1130ED0F74241D2640D43D07F0D38D0E41BC902E0
S1130EE0DB0229432B43CF0ADB0A0600B61A9F41D3
S1130EF004D2641EB6197F41B6185F416812800D92
S1130F0024180018844222DCE80C0021B6197F4121
S1130F10B61A9F4102D2B6185F413F1C4041494175
S1130F20F4D3241C21DD2405B6197F41B61A9F4150
S1130F3005D33743C60737430026012F704161416B
S1130F4066463143F0BC7047FCD1F74205D200201D
S1130F50C14349054908F3E704D00020C143F1E740
S1130F607F0DFAD000206146ECE72442FAD1401C00
S1130F7061410F03F6D30020E2E730B40124640595
S1130F804D00EC420BD85D00EC4208D80C001C4329
S1130F9064000443144304D28B4200D1824230BC27
S1130FA07047FCD09942FAD19042F8E7F8B50FB4F3
S1130FB084B004A80CC8901849414815C9176C4658
S1130FC003C4684603C80021C943884221D00846A7
S1130FD041081040194001D100281AD006A803C8BE
S1130FE00D0004186D416C150025ED43AC4210D082
S1130FF02C46650804400D4001D1002C09D019008D
S1131000002900DB8CE0002480252D06A41A8D41E4
S113101088E0684603C8C3A6C0CEB9420BD1B0422B
S113102009D11D03100D05431403002D01D1002C1B
S113103001D004A840E006A803C86C4603C46C466B
S113104030CC24196D416C15ED17BD420BD1B4425F
S113105009D16C4630CC2D03260D35432403002DD5
S113106029D1002C27D13C466508294010D10028FD
S11310700ED104A803C80800410049152246914234
S113108019D1000317D100BF00BF104629461AE149
S113109006A803C80E0071004915B9420ED13003E9
S11310A00CD104A803C80800410049152246914206
S11310B001D10003E7D006A803C804E12B401AD1EC
S11310C0002A18D10E9A06A803C8FFF739F80600BB
S11310D00F0034403D4001D1002C07D07900491560
S11310E00022D243914203D1380301D100BF00BF93
S11310F030003900E7E004A803C80800410049159E
S1131100A14207D1000305D104A80CC803C8FFF706
S1131110F3FCD8E00020802109060E403100D2E023
S113112014000D0000206B49002904DA80273F06D3
S1131130061A8F4139008D4206DA06A803C80B004F
S113114080200006034018E06349002904DA802760
S11311503F06061A8F413900A94211DC01DBA04287
S11311600ED200BF00BF5D494A00520806A803C85A
S11311700B00802000060340134300201900A2E066
S113118004A80CC856A003C8FFF7B6FC634B1A00AA
S11311900C0080231B061C40144300222300FFF78D
S11311A06DFDFFF745FE0090FFF77CFE04000D0087
S11311B04DA003C822002B00FFF79EFC04AA0CCA12
S11311C0FFF75CFD06000F0049A003C822002B00B6
S11311D0FFF792FC32003B00FFF750FD04000D00C6
S11311E0690049080022444BFEF791FF02D206A889
S11311F003C84EE022002B002900FFF77DFC060007
S11312000F003EA003C832003B00FFF775FC3DA26F
S11312100CCAFFF733FD32003B00FFF76DFC02AA56
S113122003C23AA003C832003B00FFF765FC39A2B1
S11312300CCAFFF723FD32003B00FFF75DFC0022E0
S1131240364BFFF71BFD22002B00FFF755FC040073
S11312500D0002A803C822002B00FFF70FFD002297
S11312602F4BFFF70BFD06000F0002A803C8220056
S11312702B00FFF766FD0022294BFFF7FFFC02005D
S11312800B0030003900FFF717FE06AA0CCAFFF75F
S113129033FC009A0E9BD218FEF752FF04000D0097
S11312A00AA003C82040294001D1002807D06900C2
S11312B049150022D243914203D1280301D100BF32
S11312C000BF2000290009B0F0BD00BFFFFFFFFFF1
S11312D0FFFFFF7F00C89CC000C89C400000F07F57
S11312E0FE822B654715F73F000000F8422EE6BF4B
S11312F0F2E4D5BCE7E84BBE0000903C112E5781C8
S1131300A03F503F5843128C8F71BC3F4BE8A5411E
S1131310B752013F0BBDF3DAE8708C3F0000E03FA9
S11313200000F03FFFFFFFFFFFFFFFFF72B604481E
S1131330044901600448804762B60448004700003D
S113134008ED00E0000000009D1D00008D2000005D
S1131350000000000000F0BF00000000000000805A
S113136000000000000000800000000000000000F9
S1131370000000C05294EEBF00000048204E51BE51
S1131380000000F86467BCBC00000000000000001E
S1131390000000208133EDBF00000080B3DB14BEE9
S11313A0000000506706A3BC00000000000000001D
S11313B0000000D0E9DCEBBF00000008C39259BE76
S11313C000000080B0D3B8BC0000000000000000A2
S11313D000000070F98FEABF000000C0A51028BE0D
S11313E0000000E8BFC0B0BC000000000000000026
S11313F000000070284CE9BF00000060134B42BE9F
S1131400000000C03D20B8BC000000000000000047
S113141000000050FA10E8BF000000C05FF62BBEC9
S1131420000000905C71A7BC0000000000000000F8
S113143000000020FCDDE6BF000000C0F8F154BE4F
S113144000000018E9F6B9BC00000000000000002C
S1131450000000D0C3B2E5BF00000070E43254BE07
S113146000000050DB06B4BC0000000000000000D7
S113147000000010EF8EE4BF00000020F36252BEB3
S1131480000000C02A879ABC000000000000000091
S1131490000000B02272E3BF000000F0E8E056BE96
S11314A000000028352DBDBC000000000000000035
S11314B0000000000A5CE2BF000000B0FA8E41BEEA
S11314C000000040AE6FBDBC000000000000000042
S11314D000000000564CE1BF000000F015CD5FBED7
S11314E000000000141C90BC00000000000000007C
S11314F000000040BD42E0BF00000030F93457BE98
S1131500000000E06C1E93BC00000000000000001E
S1131510000000E0F57DDEBF000000B08A535EBE2F
S113152000000080DA77AABC000000000000000080
S1131530000000C09D81DCBF00000000FFA226BEA9
S11315400000006057E2B0BC000000000000000092
S113155000000060F98FDABF000000580A8151BE14
S1131560000000F05F60B8BC000000000000000054
S11315700000000098A8D8BF000000607A7F45BE34
S1131580000000D05433A3BC0000000000000000A1
S1131590000000600FCBD6BF000000D091CB40BE4E
S11315A0000000406D1BA0BC000000000000000013
S11315B0000000A0FBF6D4BF00000098C5CE52BEC8
S11315C0000000003A397EBC00000000000000006A
S11315D0000000E0FE2BD3BF0000004073872BBE49
S11315E000000000926879BC0000000000000000C8
S11315F000000040C069D1BF00000058F16353BE31
S113160000000080438D7CBC00000000000000004E
S113161000000080D85FCFBF000000181F8354BEB5
S1131620000000B03F42A2BC000000000000000027
S11316300000008067FCCBBF00000060FAFF53BECF
S113164000000050E00DB8BC0000000000000000E5
S11316500000000098A8C8BF000000607A7F35BE73
S1131660000000C0543393BC0000000000000000E0
S113167000000000DC63C5BF00000058D6FF54BE64
S113168000000000396490BC00000000000000006D
S1131690000000C0AD2DC2BF00000080A45915BEDB
S11316A0000000E0484BABBC00000000000000005C
S11316B0000000801A0BBEBF00000050BF3C5ABEA1
S11316C0000000A0B364B6BC0000000000000000ED
S11316D00000008004D6B7BF00000040BBCF36BE78
S11316E00000008076CEA8BC0000000000000000CE
S11316F00000008032BBB1BF000000402A0043BE9E
S113170000000028C60CBDBC000000000000000062
S1131710000000009473A7BF000000182B3B59BEC3
S1131720000000C0E55DA5BC000000000000000052
S113173000000000EE4397BF000000A0E6C340BED7
S113174000000020958DB5BC0000000000000000E2
S11317500000000000000080000000000000008085
S113176000000000000000800000000000000000F5
S11317700121C006C00E81405B4801607047F0B58E
S1131780020052B2002A1CD518230F254B4C02002C
S113179052B22A40083A92089200060076B23540C6
S11317A0083DAD08AD006559FF26C7001F40BE4087
S11317B0B5438901C9B2C000034099402943A150EF
S11317C015E04A4A1823040064B2A408A40014597A
S11317D0FF25C6001E40B540AC438901C9B2C5000F
S11317E02B409940214340B2800880001150F0BD45
S11317F038B580B200F082F800F090F804000D00D3
S113180000222F4B00208021C905FEF701FE002293
S11318102C4BFFF733FA02000B0020002900FFF7DE
S11318204BFB29A20CCAFFF767F929A20CCAFFF7E0
S113183025FA29A20CCAFFF73FFB02000B00002087
S11318402B49FFF77EFA00F082F832BD80B5C0B2B2
S1131850002805D100F0D6F81A21002000F033F951
S113186001BD10B500F0C8F81D4C002000F041F98E
S113187020802088FFF7BCFF1E49086010BD80B59A
S113188000F096F800F0A6F8164800F047F9162084
S1131890FFF76EFF02211620FFF771FF164800F0D4
S11318A0C5F80F20FFF764FF01210F20FFF767FF42
S11318B00121002000F080F9FEE700001CED00E0AB
S11318C0000030400000F0BF6666666666660A4047
S11318D0B6F3FDD478E9E6BF79E9263108AC5C3F7C
S11318E02CE0FF1F00E0FF1F00E100E000E400E047
S11318F00000394024E0FF1F10E0FF1F9D2102007B
S11319000AD002D4491E9218FCD5C905100A120641
S1131910524100D3012A48417047000001221206B7
S11319200118CA420AD28A420DD83822120609097D
S11319308918C20FD20711434007704700D04908E5
S11319400909014301E0C10FC907002070470122C2
S113195052054B18DA4201D9581570475B0D07221E
S1131960D2019B1A10D9FF2B1DD2DB050122D2070D
S11319700A4013430903020D1143490AC2005241AC
S113198000D9491CC81870470AD1800A0A030243C7
S11319905212921C04D9D3070B40D0051843704748
S11319A0C80FC0077047C80F0002FF30C00570475A
S11319B080B517480168802292010A430260154AE3
S11319C01D21154800F04EF901221D21134800F095
S11319D0BDF901BD80B50E480168802252010A4359
S11319E002600F4A05210F4800F03CF9012205214D
S11319F00D4800F0ABF901BD80B51D21074800F08A
S1131A00C1F901BD80B50521074800F0BBF901BD4E
S1131A10388004401421000000D0044000F10F403D
S1131A201021000000C00440C0F00F4030B534491C
S1131A300A6880231B0513430B6032490A68037844
S1131A401B011024234013430B602F490A6803230E
S1131A509A430A6003220B68447814401C430C60C8
S1131A602A4B1C680325AC431C601C6885782A40FB
S1131A7022431A60264A03789B00D358C478640131
S1131A8020252C401C4303789B00D4500B680C2465
S1131A90A3430B600B680479A4000C2525401D4367
S1131AA00D6001788900515843799B0140242340FB
S1131AB00B430178890053504179012902D1806890
S1131AC01449086030BD10B4114A0300DBB29B0016
S1131AD0D3581F24A343C9B2C906C90E1943C0B2BF
S1131AE08000115010BC704780B50A4800688047D8
S1131AF001BD0949C0B28000085880B27047000097
S1131B003C8004400CB0034008B0034020B00340C4
S1131B1000B0034020E0FF1F10B0034070B5040084
S1131B20002048480168802212040A43026002250A
S1131B30ED4345480168294001606178002904D1DA
S1131B40016801229143016003E0016801220A4314
S1131B50026000F027F966683C480068FA218900B1
S1131B6000F0DEF93A490968090C4907490F491C94
S1131B70C9B200F0D5F94643761E364821780901EA
S1131B804650217A01290DD1217809014118227882
S1131B90120180188068022202438A60E0682E499C
S1131BA0086008E0217809014118227812018018A0
S1131BB0806805408D6070BD00B5C9B200290CD1A4
S1131BC024490200D2B212018A18926801239A436E
S1131BD0C0B20001081882600BE01E490200D2B2B4
S1131BE012018A18926801231343C0B20001081835
S1131BF0836000BD10B50124184800682040002807
S1131C0006D00020144909688847002000F00DF828
S1131C10134800680440002C06D001200E490968CE
S1131C208847012000F001F810BD0A490200D2B231
S1131C3012018A18D26801231343C0B200010818A4
S1131C40C36070473C800440007003401CE0FF1FE9
S1131C50448004400071034028E0FF1F0C710340DE
S1131C601C71034030B50B00DBB2202B68DA5378CB
S1131C70042B65DA1378082B62DA93780D2B5FDA7C
S1131C800B00DBB29B00C3582E4C1C400B00DBB294
S1131C909B00C4500B00DBB29B00C3581478240291
S1131CA0E025ED0025401D430B00DBB29B00C55031
S1131CB00B00DBB29B00C3580224A3430C00E4B224
S1131CC0A40003510B00DBB29B00C3580124A343BF
S1131CD00C00E4B2A40003515378022B02D05378D1
S1131CE0032B09D10B00DBB29B00C35802241C4315
S1131CF00B00DBB29B00C4505378032B09D10B00BB
S1131D00DBB29B00C35801241C430B00DBB29B00D5
S1131D10C4500B00DBB29B00C3580B4C1C400B009F
S1131D20DBB29B00C4500B00DBB29B00C35892781B
S1131D301204F024240314401C43C9B28900445003
S1131D4030BD0000FFF8FFFFFFFFF0FF00B50B0000
S1131D50DBB2202B15DA1300DBB2022B11DA1300ED
S1131D60DBB2012B05D1426901238B40134343614C
S1131D7007E0D2B2002A04D1426901238B409A437E
S1131D80426100BD00B50A00D2B2202A04DAC2685A
S1131D9001238B401343C36000BDFEE70020534979
S1131DA00860704730B5C020514A117803001942C9
S1131DB07CD1504C2078400668D41078400726D453
S1131DC04D484E49097830230B40002B14D011782C
S1131DD038230B40302B04D0382B05D1C021C90047
S1131DE011E0A021C9000EE020211278D2B2D2085D
S1131DF05207520F914006E001211278D2B2D20864
S1131E005207520F914089B200F08AF801E0802015
S1131E1000023B490978C9B2E0220A40002A0ED0E8
S1131E20202A18D0402A1AD0602A1CD0802A1ED01A
S1131E30A02A20D0C02A22D0E02A23D025E0A02145
S1131E40890048432F490968090F491C00F068F8C4
S1131E502D49086030BDA021C9004843F2E7F021B4
S1131E60C9004843EEE7A02109014843EAE7B72146
S1131E7089004843E6E7B721C9004843E2E723491C
S1131E804843DFE722494843DCE7DBE71F252148D5
S1131E900178C9B22940491C174889B200F040F8BA
S1131EA021780D401835ADB26843CBE71178014075
S1131EB0402913D111480078C00702D480200002C1
S1131EC0C0E7012114480078C0B240084007400F21
S1131ED08140124889B200F023F8B3E71178084032
S1131EE0802801D10448ADE7B4E700000081044034
S1131EF0004006400540064000127A0001400640BA
S1131F0003400640448004401CE0FF1F9508000085
S1131F10710B0000044006400840064000093D00E3
S1131F200022030A8B420BD203098B4219D24308C5
S1131F308B422ED2411A00D20146524110467047BC
S1131F40FF2209023FD012068B4205D31212090266
S1131F508B4201D31212090203098B4219D300E008
S1131F60090AC3098B4201D3CB01C01A5241830928
S1131F708B4201D38B01C01A524143098B4201D3D6
S1131F804B01C01A524103098B4201D30B01C01A01
S1131F905241C3088B4201D3CB00C01A524183087B
S1131FA08B4201D38B00C01A524143088B4201D3A8
S1131FB04B00C01A5241884200D3401A5241CFD23A
S1131FC001461046704708B500F002F808BDFEE768
S1131FD0704730B401220EE00368C3184468083027
S1131FE0144202D04D462C19641E1D6825601B1D29
S1131FF0241D091FF9D10168001D0029ECD130BC52
S11320007047FEE710B5074979441831064C7C4403
S1132010163404E0081D0A68891888470100A142A3
S1132020F8D110BD0800000018000000A7FFFFFF52
S1132030300000007CE1FFFF00E0FF1F0000000013
S113204000F00DF8002801D0FFF7DCFF00BF00BF4F
S1132050002000BF00BFFFF712FC00F002F80120CF
S1132060704780B500F002F801BDFEE70746384628
S113207000F002F8FBE7000080B500BF00BF024A91
S113208011001820ABBEFBE72600020005480146FC
S113209003B4684680F3098800BF00BF00BF00BFD7
S11320A0FFF7CEFFA5EDF5FE00480047092100002B
S11320B000480047092100000048004709210000AA
S11320C0004800470921000000480047092100009A
S11320D0004800470921000000480047092100008A
S11320E0004800470921000000480047092100007A
S11320F0004800470921000000480047092100006A
S11321000048004709210000004800470921000059
S10B21100100000001000000C1
S903208D4F
