S01100004669726D77617265312E73726563A5
S113000008E8FF1FC1010000E7070000F307000034
S113001000000000000000000000000000000000DC
S1130020000000000000000000000000A50800001F
S11300300000000000000000A7080000A90800005C
S11300403108000039080000410800004908000098
S11300509108000091080000910800009108000038
S113006051080000590800006108000069080000F8
S11300707108000079080000810800009108000060
S11300809108000091080000910800009108000008
S11300909108000091080000910800008908000000
S11300A091080000910800009108000091080000E8
S11300B09108000091080000910800004507000025
S11300C00207000000B50178042916DA41781029E6
S11300D013DA0A490A789206920E0A700A780378AB
S11300E09B0113430B7006490A68120112090A6046
S11300F00A68407800071043086000BD00400640CD
S11301004480044000B50B00DBB2202B15DA130049
S1130110DBB2022B11DA1300DBB2012B05D14269E9
S113012001238B401343436107E0D2B2002A04D178
S1130130426901238B409A43426100BD00B50A0025
S1130140D2B2202A04DA426801238B40134343606D
S113015000BD00B50A00D2B2202A04DA8268012365
S11301608B401343836000BD30B401220EE003686A
S1130170C31844680830144202D04D462C19641E3A
S11301801D6825601B1D241D091FF9D10168001D70
S11301900029ECD130BC704710B5074979441831B7
S11301A0064C7C44163404E0081D0A688918884704
S11301B00100A142F8D110BD2C0000003C00000059
S11301C072B60448044901600448804762B6044892
S11301D00047000008ED00E00000000025080000D2
S11301E00908000085FFFFFF040000000C00000068
S10F01F000E0FF1F000000000100000000
S1130400FFFFFFFFFFFFFFFFFFFFFFFFFEFFFFFFF9
S11304100121C006C00E8140584801607047012187
S1130420C006C00E8140564801607047F0B5020016
S113043052B2002A1CD518230F25524C020052B286
S11304402A40083A92089200060076B23540083DE8
S1130450AD08AD006559FF26C7001F40BE40B54337
S11304608901C9B2C000034099402943A15015E055
S1130470454A1823040064B2A408A4001459FF25B3
S1130480C6001E40B540AC438901C9B2C5002B402B
S11304909940214340B2800880001150F0BD30B52E
S11304A00B00DBB2202B68DA5378042B65DA13785F
S11304B0082B62DA93780D2B5FDA0B00DBB29B001A
S11304C0C358324C1C400B00DBB29B00C4500B00E1
S11304D0DBB29B00C35814782402E025ED002540CC
S11304E01D430B00DBB29B00C5500B00DBB29B002D
S11304F0C3580224A3430C00E4B2A40003510B002C
S1130500DBB29B00C3580124A3430C00E4B2A40053
S113051003515378022B02D05378032B09D10B00DB
S1130520DBB29B00C35802241C430B00DBB29B00CC
S1130530C4505378032B09D10B00DBB29B00C35882
S113054001241C430B00DBB29B00C4500B00DBB244
S11305509B00C3580E4C1C400B00DBB29B00C450E4
S11305600B00DBB29B00C35892781204F0242403DE
S113057014401C43C9B28900445030BD00E100E07E
S113058080E200E01CED00E000E400E0FFF8FFFF83
S1130590FFFFF0FF10B504000800C0B210280CDA09
S11305A0C9B2200040B2FFF741FF200040B2FFF77C
S11305B036FF200040B2FFF72BFF10BD00B50A0044
S11305C0D2B2202A0CDA0122A023C358CB40134014
S11305D0002B05D0A023C3588A401A43A0214250BF
S11305E000BD000080B54548FFF76CFD4448016834
S11305F004220A43026043484349086001BD00B530
S11306000020424908603E48016801220A43026012
S11306100168C903FCD5016801229143016000BD52
S113062080B53B480168802292010A430260394A3E
S11306301D213948FFF733FF01221D213748FFF7F9
S113064061FD01BD80B532480168802252010A4330
S11306500260334A05213348FFF721FF01220521B7
S11306603148FFF74FFD01BD80B52948016880225C
S113067012010A4302602D4A03212D48FFF70FFFA0
S1130680002203212B48FFF73DFD01BD38B52A4C5C
S11306901D212000FFF75DFD284D05212800FFF7EF
S11306A058FDFFF7ACFF1D212000FFF747FD052192
S11306B02800FFF743FDFFF7A2FF31BD38B51E4CFC
S11306C01D212000FFF745FD1C4D05212800FFF7E3
S11306D035FDFFF794FF1D212000FFF72FFD0521B5
S11306E02800FFF736FDFFF78AFF31BD1448006884
S11306F0C1080800C007C00F70470000C000000018
S113070010E000E0400D030014E000E018E000E019
S113071038800440A008000000D0044000F10F40DD
S11307209C08000000C00440C0F00F40980800007E
S113073000B0044080F00F40000100F8C00000F851
S1130740900000F880B51A480068000715D5032109
S11307501848FFF733FFFA200001401E0028FCD19F
S1130760FFF7C4FF002808D113480178012902D1FA
S11307700221017001E00121017001BD80B5FFF784
S113078031FFFFF74DFFFFF75DFFFFF76DFF00211E
S11307901F20FFF7FFFE01E0FFF778FF064801780E
S11307A00129F9D000780228F8D1FFF787FFF5E78F
S11307B0A0B0044000B0044000E0FF1F00F00DF8BA
S11307C0002801D0FFF7E8FC00BF00BF002000BFF5
S11307D000BFFFF7D3FF00F002F80120704780B597
S11307E000F002F801BDFEE70746384600F002F8C3
S11307F0FBE7FEE780B500BF00BF024A11001820E6
S1130800ABBEFBE7260002000548014603B4684678
S113081080F3098800BF00BF00BF00BFFFF7CEFF11
S1130820A5EDF5FE002001490860704700810440F1
S11308300048004791080000004800479108000064
S11308400048004791080000004800479108000054
S11308500048004791080000004800479108000044
S11308600048004791080000004800479108000034
S11308700048004791080000004800479108000024
S11308800048004791080000004800479108000014
S1130890004800479108000001030A00010000001D
S10D08A001000000FEE7FEE7FEE79A
S9030809EB
