S01100004669726D77617265312E73726563A5
S113000008E8FF1FC1010000F3070000FF0700001C
S113001000000000000000000000000000000000DC
S1130020000000000000000000000000B108000013
S11300300000000000000000B3080000B508000044
S11300403D080000450800004D0800005508000068
S11300509D0800009D0800009D0800009D08000008
S11300605D080000650800006D08000075080000C8
S11300707D080000850800008D0800009D08000030
S11300809D0800009D0800009D0800009D080000D8
S11300909D0800009D0800009D08000095080000D0
S11300A09D0800009D0800009D0800009D080000B8
S11300B09D0800009D0800009D08000051070000F5
S11300C00207000000B50178042916DA41781029E6
S11300D013DA0A490A789206920E0A700A780378AB
S11300E09B0113430B7006490A68120112090A6046
S11300F00A68407800071043086000BD00400640CD
S11301004480044000B50B00DBB2202B15DA130049
S1130110DBB2022B11DA1300DBB2012B05D14269E9
S113012001238B401343436107E0D2B2002A04D178
S1130130426901238B409A43426100BD00B50A0025
S1130140D2B2202A04DA426801238B40134343606D
S113015000BD00B50A00D2B2202A04DA8268012365
S11301608B401343836000BD30B401220EE003686A
S1130170C31844680830144202D04D462C19641E3A
S11301801D6825601B1D241D091FF9D10168001D70
S11301900029ECD130BC704710B5074979441831B7
S11301A0064C7C44163404E0081D0A688918884704
S11301B00100A142F8D110BD2C0000003C00000059
S11301C072B60448044901600448804762B6044892
S11301D00047000008ED00E00000000031080000C6
S11301E01508000085FFFFFF040000000C0000005C
S10F01F000E0FF1F000000000100000000
S1130400FFFFFFFFFFFFFFFFFFFFFFFFFEFFFFFFF9
S11304100121C006C00E8140584801607047012187
S1130420C006C00E8140564801607047F0B5020016
S113043052B2002A1CD518230F25524C020052B286
S11304402A40083A92089200060076B23540083DE8
S1130450AD08AD006559FF26C7001F40BE40B54337
S11304608901C9B2C000034099402943A15015E055
S1130470454A1823040064B2A408A4001459FF25B3
S1130480C6001E40B540AC438901C9B2C5002B402B
S11304909940214340B2800880001150F0BD30B52E
S11304A00B00DBB2202B68DA5378042B65DA13785F
S11304B0082B62DA93780D2B5FDA0B00DBB29B001A
S11304C0C358324C1C400B00DBB29B00C4500B00E1
S11304D0DBB29B00C35814782402E025ED002540CC
S11304E01D430B00DBB29B00C5500B00DBB29B002D
S11304F0C3580224A3430C00E4B2A40003510B002C
S1130500DBB29B00C3580124A3430C00E4B2A40053
S113051003515378022B02D05378032B09D10B00DB
S1130520DBB29B00C35802241C430B00DBB29B00CC
S1130530C4505378032B09D10B00DBB29B00C35882
S113054001241C430B00DBB29B00C4500B00DBB244
S11305509B00C3580E4C1C400B00DBB29B00C450E4
S11305600B00DBB29B00C35892781204F0242403DE
S113057014401C43C9B28900445030BD00E100E07E
S113058080E200E01CED00E000E400E0FFF8FFFF83
S1130590FFFFF0FF10B504000800C0B210280CDA09
S11305A0C9B2200040B2FFF741FF200040B2FFF77C
S11305B036FF200040B2FFF72BFF10BD00B50A0044
S11305C0D2B2202A0CDA0122A023C358CB40134014
S11305D0002B05D0A023C3588A401A43A0214250BF
S11305E000BD000080B54848FFF76CFD474801682E
S11305F004220A43026046484649086001BD00B52A
S11306000020454908604148016801220A4302600C
S11306100168C903FCD5016801229143016000BD52
S113062080B5FFF7ECFFFFF7EAFF01BD80B53B485B
S11306300168802292010A430260394A1D21394827
S1130640FFF72DFF01221D213748FFF75BFD01BD98
S113065080B532480168802252010A430260334A5D
S113066005213348FFF71BFF012205213148FFF71D
S113067049FD01BD80B529480168802212010A4361
S113068002602D4A03212D48FFF709FF00220321B0
S11306902B48FFF737FD01BD38B52A4C1D2120003A
S11306A0FFF757FD284D05212800FFF752FDFFF7FE
S11306B0B7FF1D212000FFF741FD05212800FFF7AA
S11306C03DFDFFF7ADFF31BD38B51E4C1D212000A7
S11306D0FFF73FFD1C4D05212800FFF72FFDFFF715
S11306E08EFF1D212000FFF729FD05212800FFF7BB
S11306F030FDFFF784FF31BD14480068C1080800CD
S1130700C007C00F70470000C000000010E000E008
S1130710A086010014E000E018E000E03880044006
S1130720AC08000000D0044000F10F40A80800000D
S113073000C00440C0F00F40A408000000B0044012
S113074080F00F40000100F8C00000F8900000F8AD
S113075080B51A480068000715D503211848FFF72B
S11307602DFFFA200001401E0028FCD1FFF7C4FF32
S1130770002808D113480178012902D1022101700F
S113078001E00121017001BD80B5FFF72BFFFFF7E8
S11307904DFFFFF75DFFFFF76DFF00211F20FFF7FF
S11307A0F9FE01E0FFF778FF064801780129F9D046
S11307B000780228F8D1FFF787FFF5E7A0B00440DE
S11307C000B0044000E0FF1F00F00DF8002801D045
S11307D0FFF7E2FC00BF00BF002000BF00BFFFF72F
S11307E0D3FF00F002F80120704780B500F002F852
S11307F001BDFEE70746384600F002F8FBE7FEE7D6
S113080080B500BF00BF024A11001820ABBEFBE751
S1130810260002000548014603B4684680F30988AF
S113082000BF00BF00BF00BFFFF7CEFFA5EDF5FE80
S113083000200149086070470081044000480047D7
S11308409D080000004800479D080000004800473C
S11308509D080000004800479D080000004800472C
S11308609D080000004800479D080000004800471C
S11308709D080000004800479D080000004800470C
S11308809D080000004800479D08000000480047FC
S11308909D080000004800479D08000000480047EC
S11308A09D08000001030A0001000000010000008F
S10908B0FEE7FEE7FEE78F
S9030815DF
